:020000040800F2
:10000000681900201D020008DD0800086F070008BD
:10001000D9080008B9050008CB1500080000000049
:100020000000000000000000000000003111000886
:100030003D06000800000000391000089112000879
:1000400037020008370200083702000837020008AC
:10005000370200083702000837020008370200089C
:10006000370200083702000837020008370200088C
:10007000370200083702000837020008370200087C
:10008000370200083702000837020008370200086C
:10009000370200083702000837020008370200085C
:1000A000370200083702000837020008370200084C
:1000B000370200083702000837020008370200083C
:1000C000370200083702000837020008370200082C
:1000D0003702000831130008370200083702000811
:1000E000370200083702000837020008370200080C
:1000F00037020008370200083702000837020008FC
:1001000037020008370200083702000837020008EB
:1001100037020008370200083702000837020008DB
:1001200037020008370200083702000837020008CB
:1001300000F002F800F063F80AA090E8000C824496
:100140008344AAF10107DA4501D100F058F8AFF273
:10015000090EBAE80F0013F0010F18BFFB1A43F0A5
:1001600001031847EC3E00000C3F000010F8013B73
:100170000A4413F0030408BF10F8014B1D1108BF17
:1001800010F8015B641E05D010F8016B641E01F8C5
:10019000016BF9D1002D15D010F8014B03F00C03C1
:1001A0000C2BA1EB04040ABF10F8013BA4EB831451
:1001B000A4EB032405F1010314F8016B5B1E01F8A5
:1001C000016BF9D5914238BF10F8013BD1D370478C
:1001D0000023002400250026103A28BF78C1FBD850
:1001E000520728BF30C148BF0B607047642900F038
:1001F0007380002070471FB51FBD10B510BD00F003
:10020000A8F91146FFF7F7FF01F02EFB00F0C6F941
:1002100003B4FFF7F2FF03BC01F0E0F9094880479F
:1002200009480047FEE7FEE7FEE7FEE7FEE7FEE7D8
:10023000FEE7FEE7FEE7FEE704480549054A064BF0
:1002400070470000D1120008310100086813002037
:10025000681900206815002068150020704700000C
:100260000FB41CB5074B06AA7B446946009005985D
:1002700000F057F90020694600F066F91CBC5DF8F3
:1002800014FB0000DD02000070B5044685690068BB
:10029000C10601D5302600E02026C00707D070BD7A
:1002A000D4E9012130469047206A401C20626D1E2F
:1002B000F6D570BD70B5044685690078C00707D1D2
:1002C00070BDD4E9012120209047206A401C2062A3
:1002D0006D1EF6D570BD00002DE9F04106460024E4
:1002E00010687529314616A510D0AFF3008000289C
:1002F00002DA404213A507E031688A0701D512A54A
:1003000002E0490704D511A5012401E0AFF3008004
:1003100000210A2206F1240709E0B0FBF2FCB0FB41
:10032000F2F302FB1C00303078541846491C0028B8
:10033000F3D123462A463046BDE8F04100F093B899
:10034000000000002D0000002B0000002000000035
:100350002DE9F0474FF0000A89460446C0F820A076
:100360002046E1688847002876D0252806D0D4E9C1
:1003700001219047206A401C2062F1E7E168204695
:1003800000258847C4F81CA006460027C4F818A01A
:100390002A2E09D0304601F01AF938B304EB870849
:1003A000303EC8F8186019E059F8041B204604EBE9
:1003B00087029161E1688847012F064618D1E069FC
:1003C000002820DA25F020051DE0D8F8180000EB01
:1003D000800006EB40003038C8F818002046E1687D
:1003E0008847064601F0F3F80028EED1012F0AD025
:1003F0002E2E08D12046E16888477F1C0646022F32
:1004000045F02005C4DBA069002803DA404245F02E
:100410000105A061E80701D025F01005B6B1A6F1ED
:100420004100192802D8203645F400654A46314675
:10043000204625604D46FFF7D9FE58B1012806D069
:10044000ED1D25F0070000F1080989E704E005F13A
:10045000040985E730468AE7206ABDE8F0877047DF
:100460007047704770472DE9F0470D469946924610
:10047000044600F124080168880604D5E06921F0EB
:100480001001216000E00120A84201DD471B00E0CF
:100490000027A1697A1902EB0900081AA0612078E7
:1004A000C00602D42046FFF7EFFE002608E0D4E99C
:1004B00001211AF806009047206A401C761C206231
:1004C0004E45F4DB2078C0060AD52046FFF7DCFE57
:1004D00006E0D4E9012130209047206A401C2062C8
:1004E000381EA7F10107F4DC07E0D4E9012118F870
:1004F00005009047206A401C2062281EA5F10105D6
:10050000F3DC2046FFF7D6FE2078000602D5022055
:10051000BDE8F0870120FBE701694A1C0261087809
:10052000704700B58FB0CDE9013100210591054933
:100530007944CDE9031011466846FFF709FF0FB073
:1005400000BD0000E5FFFFFF0A6802F8010B0A602A
:100550007047754600F02CF8AE46050069465346D4
:1005600020F00700854618B020B5FFF765FEBDE80E
:1005700020404FF000064FF000074FF000084FF00A
:10058000000B21F00701AC46ACE8C009ACE8C0099B
:10059000ACE8C009ACE8C0098D46704710B5044608
:1005A000AFF300802046BDE81040FFF731BE0000E9
:1005B000004870470413002000BFFEE708B501F0B3
:1005C0005DF81349086008460068020E0846006896
:1005D000C0F307430FA11348FFF742FE0120102389
:1005E000104A00210090084600F0E5FC0848037816
:1005F0000088C0F307220CA10F48FFF731FE01204D
:1006000010230D4A19460090002000F0D4FC08BDCC
:10061000540E0020486D64203A202532642E256453
:1006200025250000D812002054656D703A2025322F
:10063000642E256443000000ED12002070472DE970
:10064000F041024600250026002000230024002758
:1006500091F803C00CF00F0591F803C00CF0100CDA
:10066000BCF1000F03D091F802C04CEA050591F8E7
:1006700000C0BCF1000F31D0146800202BE04FF017
:10068000010C0CFA00F3B1F800C00CEA03069E421C
:1006900020D183004FF00F0C0CFA03F7BC4305FA8E
:1006A00003FC4CEA040491F803C0BCF1280F06D106
:1006B0004FF0010C0CFA00FCC2F814C00AE091F8EB
:1006C00003C0BCF1480F05D14FF0010C0CFA00FC3F
:1006D000C2F810C0401C0828D1D31460B1F800C083
:1006E000BCF1FF0F34DD546800202EE000F1080C4F
:1006F0004FF0010808FA0CF3B1F800C00CEA030649
:100700009E4221D183004FF00F0C0CFA03F7BC433B
:1007100005FA03FC4CEA040491F803C0BCF1280F6D
:1007200005D100F1080C08FA0CF8C2F8148091F811
:1007300003C0BCF1480F07D100F1080C4FF00108CD
:1007400008FA0CF8C2F81080401C0828CED3546078
:10075000BDE8F0810246002093680B400BB10120F8
:1007600000E000207047416170470161704700BFA1
:10077000FEE7000010B502210A48FFF7F6FF01214D
:100780000848FFF7F2FF00F037F802210548FFF7AD
:10079000EAFF00F031F801210248FFF7E4FF00F022
:1007A0002BF810BD0008014010B502210648FFF7E4
:1007B000DAFF01210448FFF7D8FF00F01DF80221FD
:1007C0000148FFF7D2FF10BD0008014010B502211B
:1007D0000848FFF7CAFF00F00FF801210548FFF7AE
:1007E000C4FF00F009F801210248FFF7BCFF00F048
:1007F00003F810BD00080140032000BF011EA0F156
:100800000102D0B2FAD1704708B50121082000F0EA
:1008100015FC4FF44070ADF8000048208DF803003F
:1008200003208DF8020069460148FFF708FF08BD64
:10083000000C014010B5044616480078012817D175
:100840001548006818B11448001D006880B90A20D6
:1008500000F0E8FE00200F4908700F48006808B952
:10086000012010BD0C48001D006860B90220F8E7A7
:1008700009480068012806D10748001D00680128C2
:1008800001D104490870012C02D1012001490870EE
:100890000020E6E7000000202081214208B5012168
:1008A000042000F0CBFB0320ADF8000010208DF8F1
:1008B000030003208DF8020069460648FFF7BFFEDB
:1008C00001210448FFF74FFF02210248FFF74DFFC7
:1008D00008BD00000008014000BFFEE770470000AF
:1008E00070B5002100230F22C47804B3154C24688E
:1008F00004F4E064C4F5E064210AC1F10403CA40D1
:10090000447804FA03F184781440214309010E4C21
:100910000678A155047804F01F050124AC40057841
:100920006D11AD0005F1E025C5F8004109E004783E
:1009300004F01F050124AC40044D0678761145F8FB
:10094000264070BD0CED00E000E400E080E100E036
:1009500002490143024A1160704700000000FA0595
:100960000CED00E070B500240CE0002506E000204E
:10097000074901EBC5010855681CC5B2802DF6DB9F
:10098000601CC4B2082CF0DB00F010F970BD000050
:10099000580E002010B504461CB90021A62000F016
:1009A0002FFB012C03D10021A72000F029FB10BD53
:1009B00010B504463CB90021C82000F021FB0021FD
:1009C000A12000F01DFB012C07D10021C02000F068
:1009D00017FB0021A02000F013FB10BDF0B514465A
:1009E0000B46CF1701EB5777C7F3C702CF1701EBC1
:1009F0005777FF10A1EBC707FEB20123B340DDB26A
:100A00004CB1134B03EBC0039B5C2B43104F07EB24
:100A1000C007BB541AE00E4B03EBC0039B5CDB43E7
:100A20000B4F07EBC007BB54094B03EBC0039B5CA8
:100A30002B43074F07EBC007BB54054B03EBC00329
:100A40009B5CDB43024F07EBC007BB54F0BD0000CB
:100A5000580E002008B50121042000F0EFFA032011
:100A6000ADF8000014208DF8030003208DF802007B
:100A700069464748FFF7E3FD03214548FFF775FE48
:100A80000420ADF8000010208DF8030003208DF83D
:100A9000020069463E48FFF7D2FD04213C48FFF7BB
:100AA00064FE04213A48FFF75EFEC82000F0BAFD5C
:100AB00004213748FFF759FE0021AE2000F0A0FACC
:100AC0000021084600F09CFA0021102000F098FA5E
:100AD0000021402000F094FA0021812000F090FADB
:100AE0000021CF2000F08CFA0021A12000F088FA2C
:100AF0000021C82000F084FA0021A62000F080FA2E
:100B00000021A82000F07CFA00213F2000F078FAB4
:100B10000021D32000F074FA0021084600F070FA9A
:100B20000021D52000F06CFA0021802000F068FA46
:100B30000021D92000F064FA0021F12000F060FAD1
:100B40000021DA2000F05CFA0021122000F058FAAF
:100B50000021DB2000F054FA0021302000F050FA90
:100B60000021202000F04CFA0021022000F048FA79
:100B700000218D2000F044FA0021142000F040FAFA
:100B8000FFF7F0FE0021AF2000F03AFA08BD0000A8
:100B90000008014010B50246012000E050430B1E42
:100BA000A1F10104E1B2F9D110BD000070B500243B
:100BB0002BE004F1B001C8B2002100F021FA0021BD
:100BC000084600F01DFA0021102000F019FAFFF786
:100BD000D1FD782000F0AEFAFFF7F8FD402000F0DC
:100BE000A9FAFFF7F3FD002509E0094901EBC5016A
:100BF000085D00F09FFAFFF7E9FD681CC5B2802D83
:100C0000F3DBFFF7D1FD601CC4B2082CD1DB70BD53
:100C1000580E00202DE9FE4F0746884692461C4696
:100C20000197CDF80080082C02D14FF006091FE093
:100C30002046E31704EB5373DB1021464FEAE47CB4
:100C400004EB5C7C4FEAEC0CA4EBCC0CBCF1000F89
:100C500002D04FF0010C01E04FF0000C634422463B
:100C600004EBD27C4FEA6C0C03FB0CF303F0FF099E
:100C7000AAF12000C6B200255EE0082C07D106EBE1
:100C800046002F4901EB400010F805B01DE00C2C88
:100C900007D106EB46002B4901EB800010F805B0A8
:100CA00013E0102C05D1284800EB061010F805B011
:100CB0000BE0182C07D106EBC600244901EB80009D
:100CC00010F805B001E0BDE8FE8F002002901CE0A6
:100CD0000BF0010028B1414638460C9AFFF77EFE22
:100CE00009E00C9808B9012000E0002002464146C6
:100CF0003846FFF773FE4FEA6B0B08F1010000F076
:100D0000FF080298401CC0B2029002980828DFDB5E
:100D1000781CC7B2082C0BD004EBD4714A1001998F
:100D2000791A8A4204D1019F00980830C0B200901D
:100D3000DDF80080681CC5B24D459EDB00BFC2E7F0
:100D4000C0210008E82300085C2800084C2E000899
:100D50002DE9FC4F0746884616461C46BB46CDF893
:100D600004802046E21704EB5272D2102146E317AA
:100D700004EB5373DB10A4EBC3030BB1012300E0BE
:100D800000231A44624392B20092002555E0102CD1
:100D900005D12C4800EB461010F805A01BE0182CDC
:100DA00007D106EBC600284901EBC00010F805A0EA
:100DB00011E0202C05D1254800EBC61010F805A045
:100DC00009E0402C05D1224800EB462010F805A090
:100DD00001E0BDE8FC8F4FF000091CE00AF00100C3
:100DE00028B1414638460B9AFFF7F8FD09E00B9809
:100DF00008B9012000E00020024641463846FFF7CE
:100E0000EDFD4FEA6A0A08F1010000F0FF0809F160
:100E1000010000F0FF09B9F1080FDFDB781CC7B251
:100E2000A7EB0B00A04204D15F4601980830C0B286
:100E30000190DDF80480681C85B200988542A6DB2D
:100E400000BFC6E7A83B0008883D0008D03D000869
:100E5000503E00082DE9FF4F82B0064691461F46DE
:100E6000DDE90F4A4FF0000B082C01D14FF0020BC7
:100E7000002530E0781B401EC1B20A20FFF78AFE31
:100E8000B9FBF0F00A21B0FBF1F201FB1208B8F156
:100E9000000F0ED104EBD4710BEB610101FB056176
:100EA000C8B223463022CDE900A40399FFF7B2FE71
:100EB0000FE004EBD4710BEB610101FB0561C8B2DB
:100EC00008F13001CAB22346CDE900A40399FFF727
:100ED000A1FE681CC5B2BD42CCDB06B0BDE8F08FF8
:100EE0002DE9FF4F05460E4617461C46DDF83890A3
:100EF0004FF0000A0095B3462046E21704EB527209
:100F0000D2102146E31704EB5373DB10A4EBC303A9
:100F10000BB1012300E000231A44D4B24FF00008C3
:100F200045E0002003903BE00D9810F80A00029085
:100F30000AF101001FFA80FA002001901DE00298DA
:100F400000F0010028B14A4631462846FFF746FD29
:100F50000AE0B9F1000F01D1012000E000200246B3
:100F600031462846FFF73AFD029840100290701C67
:100F7000C6B20198401CC0B2019001980828DEDB7F
:100F8000681CC5B20098281AB84204D1009D0BF124
:100F9000080000F0FF0B5E460398401CC0B20390AF
:100FA0000398B842C0DB08F1010000F0FF08A0453B
:100FB000B7DBBDE8FF8F2DE9F84106460F46144622
:100FC0001D46DDF81C8013E0CDF8008022782B460A
:100FD00039463046FFF71EFE082D02D1B01DC6B2BD
:100FE00005E0284605EBD07106EB6101CEB2641C2A
:100FF0002078202802DB20787E28E5DDBDE8F88116
:1010000070B505460C46FFF7B5FB782000F092F866
:10101000FFF7DCFB1CB1402000F08CF802E0002060
:1010200000F088F8FFF7D2FB284600F083F8FFF7BE
:10103000CDFBFFF7B9FB70BD7047000029B1064A30
:1010400092690243044B9A6104E0034A9269824325
:10105000014B9A61704700000010024030B500213A
:101060000022002400232D4D6D6805F00C0121B1F4
:10107000042905D0082923D105E0294D056022E087
:10108000274D05601FE0254D6D6805F47012234D56
:101090006D6805F48034022505EB92421CB9214DA0
:1010A000554305600BE01D4D6D6805F400351DB11D
:1010B0001C4D5543056002E0194D5543056002E0A3
:1010C000174D056000BF00BF144D6D6805F0F001BD
:1010D0000909154D6B5C0568DD4045600F4D6D6875
:1010E00005F4E061090A104D6B5C4568DD408560E0
:1010F0000A4D6D6805F46051C90A0B4D6B5C45687B
:10110000DD40C560054D6D6805F44041890B074D14
:101110006B5CC568B5FBF3F5056130BD001002409E
:1011200000127A0000093D0001000020110000209B
:101130007047000070B5044600251BE004F08000F5
:1011400020B102210D48FFF710FB03E002210B48FC
:10115000FFF709FBFFF750FB01210848FFF705FBEC
:10116000FFF74AFB01210548FFF7FDFA6006040E70
:10117000681CC5B2082DE1DB70BD0000000801400D
:1011800010B500F001F810BD0CB5002001900090E2
:101190003348006840F480303149086000BF30486F
:1011A000006800F4003000900198401C0190009805
:1011B00018B90198B0F5A06FF1D12948006800F482
:1011C000003010B10120009001E000200090009854
:1011D000012843D12348006840F0100021490860ED
:1011E0000846006820F0030008600846006840F0E8
:1011F000020008601A48406819494860084640687B
:1012000048600846406840F480604860084640688E
:1012100020F47C1048600846406840F4E8104860BC
:101220000846006840F08070086000BF0C48006805
:1012300000F000700028F9D00948406820F0030051
:10124000074948600846406840F00200486000BF17
:101250000348406800F00C000828F9D10CBD0000DC
:101260000010024000200240042808D14FF0E02185
:10127000096941F004014FF0E022116107E04FF0ED
:10128000E021096921F004014FF0E022116170476B
:101290007047000010B504466FF00400FFF7E4FF4C
:1012A000E11704EB5171C1F3C701074A11701046F1
:1012B000007800EB4001C1EBC0104FF6FF7101EA6E
:1012C000C0000249088010BD360000203800002010
:1012D00010B51348006840F0010011490860084645
:1012E0004068104908400E494860084600680E49A9
:1012F00008400B4908600846006820F48020086018
:101300000846406820F4FE0048604FF41F008860E3
:10131000FFF736FF4FF000600449086010BD000081
:10132000001002400000FFF8FFFFF6FE08ED00E0AD
:101330002DE9F04740F225512D4800F086F80028AD
:1013400053D040F225512A4800F064F8284800F0B4
:1013500037F9C4B2FF2C02D1012026490870254874
:101360000078012841D1FF2C3FD023482349096848
:10137000445422480068401C204908600846006820
:10138000082806D1002008601A49087001201C496D
:1013900008701B48007840B317480179C07801EB0A
:1013A0000029484600F0E2FC07460022154B00F0F9
:1013B00085FB054600F050FB8246504600F0E8FDF4
:1013C00007460022104B00F0E5FC054600F044FB08
:1013D00082460E49504600F027FE054600F004FE06
:1013E0000B490860002006490870BDE8F08700003E
:1013F000003801403400002022000020300000208E
:101400002A00002000408F400000F43F00007A4492
:101410002C00002010B50022002340F66A14A142DF
:1014200000D100BF0A1201249440A3B2DC4304801F
:1014300010BD21B1828942F40052828104E0828988
:101440004DF6FF731A408281704770B50246002442
:1014500000230025002040F66A16B14200D100BFEB
:10146000C1F3421501F01F03012606FA03F3012D13
:1014700002D19689334006E0022D02D1168A33400C
:1014800001E0968A33400C12012606FA04F416880D
:10149000344013B10CB1012000E0002070BDF0B564
:1014A0000346002400260025002040F66A17B942B2
:1014B00000D100BF1846C1F3421401F01F060127F6
:1014C00007FA06F5012C01D10C3004E0022C01D101
:1014D000103000E014301AB107682F43076002E0B3
:1014E0000768AF430760F0BD2DE9F04786B00546B9
:1014F0000E460024A24600BFA1460027B08900B1D5
:1015000000BF2F462C8A4CF6FF700440F08804433D
:101510002C82AC894EF6F3100440B0883189084320
:10152000718908430443AC81AC8A4FF6FF40044004
:10153000B0890443AC8201A8FFF790FD1F488742A1
:1015400002D1DDF810A001E0DDF80CA0A88900F4BC
:10155000004040B10AEBCA0000EB0A1031684900B4
:10156000B0FBF1F807E00AEBCA0000EB0A103168A3
:101570008900B0FBF1F86420B8FBF0F00401200909
:10158000642101FB1089A88900F4004040B1322099
:1015900000EBC900B0FBF1F000F00700044308E0E5
:1015A000322000EB09106421B0FBF1F000F00F00D5
:1015B00004432C8106B0BDE8F087000000380140EC
:1015C00001468888C0F30800704700BFFEE7303846
:1015D0000A2801D2012070470020704700BF7047E1
:1015E00010B56FF00400FFF73FFE0A4800680A4993
:1015F000B0FBF1F0094908700846007800EB4001A3
:10160000C1EBC0104FF6FF7101EAC0000449088029
:1016100010BD00003C00002000127A0016000020DF
:10162000180000200146114A12884A434FF0E02377
:101630005A6100229A611A46126942F001021A6147
:1016400000BF4FF0E022106900F001021AB100F46F
:101650008032002AF5D04FF0E022126922F0010218
:101660004FF0E0231A6100229A61704718000020B1
:1016700000BF011EA0F10100FBD170472DE9F04130
:1016800080213F48FFF76FF83E48FFF7F1FF8021C8
:101690003B48FFF76AF84FF49070FFF7E9FF00F05E
:1016A0005FF941F2883600E0761E80213448FFF76A
:1016B00051F808B9002EF7DC41F2883600E0761EBA
:1016C00080212F48FFF746F808B1002EF7DC0027ED
:1016D00028E041F2883600E0761E80212848FFF796
:1016E00039F808B9002EF7DC40F29310FFF7C0FF7D
:1016F00080212348FFF72EF830B1221945EB050071
:10170000541C40F1000501E024196D4141F2883676
:1017100000E0761E80211A48FFF71CF808B1002E61
:10172000F7DC7F1C282FD4DB00F02CF98021144833
:10173000FFF71BF8E917200E40EA05202A1841EBB5
:1017400025614FEA144040EA0540121841EB25415B
:101750004FEA142040EA0560121841EB2520131BC4
:1017600060EB0501D8B2002148404940084302D04F
:101770000020BDE8F081200A40EA0560F9E700009A
:101780000008014080F403001CB5344800680128BB
:1017900004D0022805D003285DD12FE0FFF706FA18
:1017A00059E001202E4940231A46CDE900100021BE
:1017B0000846FFF795FB0120102304221421009016
:1017C0004620FFF7C5FA01201023052214210090BE
:1017D0005A20FFF7BDFA0120102302222821009091
:1017E0004620FFF7B5FA012010230322282100909C
:1017F0005A20FFF7ADFAFFF7D9F92CE0012019497B
:1018000040231A46CDE9001000210846FFF768FB87
:10181000012010230622142100904620FFF798FA99
:10182000012010230722142100905A20FFF790FA7C
:10183000012010230222282100904620FFF788FA79
:10184000012010230322282100905A20FFF780FA5C
:10185000FFF7ACF900BF00BF1CBD0000500E002018
:10186000500A0020500C00201CB5002500BF4FF48A
:10187000A060FFF76DF800F097F8FFF7B1FEFFF7F3
:10188000E9F80020FFF786F80020FFF791F800261E
:101890004820FFF7FFFCFFF701F8FEF7B5FFFFF761
:1018A00073FF4CE026480068864201D02448066851
:1018B0000120102323A2202100900020FFF77BFBB2
:1018C000012010210323CDE900101D4820210268CA
:1018D0003020FFF7BFFA012010231CA22021009026
:1018E0004820FFF768FB681CC5B2642095FBF0F147
:1018F00000FB115008B9FEF761FEFFF745FF00201D
:10190000FEF798FF0446012C15D112480068C04329
:101910001149C1F8800111480068032805DA0F4811
:101920000068401C0D49086002E001200B49086076
:10193000FFF72AFF00BF00BF0120FFF773FEB1E7EA
:101940002C00002050504D203A000000756D2F6D86
:101950005E3300008001214200002142500E002031
:1019600008B58020ADF8000048208DF80300022063
:101970008DF8020069460248FEF761FE08BD0000CE
:101980000008014008B58020ADF8000010208DF857
:10199000030002208DF8020069460248FEF74FFE60
:1019A00008BD00000008014010B586B004460121C2
:1019B0008803FFF743FB01210420FFF73FFB1820BA
:1019C0008DF803004FF40070ADF8000003208DF88F
:1019D000020069461E48FEF732FE04208DF803001F
:1019E0000002ADF8000003208DF802006946184897
:1019F000FEF725FE4FF4165001900020ADF81000C0
:101A00000C20ADF80E000020ADF80C00ADF80A0077
:101A1000ADF8080001A90F48FFF766FD01210D4848
:101A2000FFF707FD012240F225510A48FFF737FD75
:101A300025208DF8140001208DF8170000208DF866
:101A400015008DF8160005A8FEF74AFF06B010BD78
:101A5000000801400038014021F00042A2F160522C
:101A6000B2F5801F01F0004328BFD2F17F6C0BD983
:101A70005FEA001C43EAC20242EB507018BF704795
:101A800028BF20F001007047B2F5801FBCBF184688
:101A900070474FEA410C1CF5001F02D2084600F0C7
:101AA0008ABB70B500F020FA00000089FFF7F6BF8E
:101AB0004FF00040A0F58000704700002DE9C041C4
:101AC00030B4DFF8A0C23CEA111418BF3CEA13148A
:101AD00000F0EC8081EA03051CEA111444EAD57495
:101AE00018BF1CEA131500F0C780A4EB05044FF0E3
:101AF000004545EAC12145EAC32341EA505143EA82
:101B0000525304F17F74994204F500344FEAC02027
:101B10004FEAC22208BF904200F09C804FEA136552
:101B20000FF24016765D4FEA134506FB05F7C7F145
:101B3000807706FB07F74FEAD737A7FB03687642A3
:101B4000C8F58038A7FB06CE38BFA8F1010807FB0F
:101B500008E64FF0000EA6FB028CE6FB03CEDCF19C
:101B6000000CCEF1004E38BFAEF1010EA6FB0C58B2
:101B70004FF000074FF00005E6FB0E87A1FB08C6FB
:101B8000A0FB07CE16EB0E0645F10005E1FB07654D
:101B900015F1E04E7EBFA4F580345FEA46066D4144
:101BA00016F1800745F100054FEA17274FEA066650
:101BB00047EA0567A6F1DE46B6F1805F4FEA1525D4
:101BC0001FD9384624F0010C05EBC471BCF1FE6F3F
:101BD00001EB0C1102D8F0BCBDE8008124425CBFCF
:101BE00001F5801E9EEAC47F02D4F0BCBDE80081EE
:101BF000244238D4F0BCA1F1C041BDE8004100F05E
:101C0000C1B94FEAD22242EA43524FEAD323A7FB9B
:101C100002864FEAD02040EA415007FB03661EEAE5
:101C20000E0F4FEAD12105FB026658BFA6EB005606
:101C3000B6EB00564FEA520E4EEAC37E18EB0E0E7C
:101C400056EB530EBDD518EB02085E417F1C55F1D3
:101C50000005B6E74FF480154FF000074FF000067F
:101C60004FF00008ADE7F0BC4FF0000001F1C041BB
:101C700001F00041BDE8008111EA0C1F0CEA1315C8
:101C800000D00CE013EA0C1F00F025804FF000009C
:101C9000F0BC81EA030101F00041BDE80081F0BC25
:101CA000BDE8004181EA030100F06CB9F0BCBDE879
:101CB000004170B500F018F9097EFC3E00F007B84D
:101CC00081EA03014FF0000001F00041704781EA12
:101CD000030100F057B9F0BCBDE800414FF000002F
:101CE00021497047FFFDFBF9F7F5F4F2F0EEEDEB5B
:101CF000E9E8E6E4E3E1E0DEDDDBDAD8D7D5D4D30A
:101D0000D1D0CFCDCCCBCAC8C7C6C5C4C2C1C0BF55
:101D1000BEBDBCBBBAB9B8B7B6B5B4B3B2B1B0AF5B
:101D2000AEADACABAAA9A8A8A7A6A5A4A3A3A2A13F
:101D3000A09F9F9E9D9C9C9B9A99999897979695FA
:101D400095949393929191908F8F8E8E8D8C8C8B96
:101D50008B8A89898888878786858584848383821E
:101D6000828181800000FF070000F87FB0FA80F3D5
:101D700010FA03F10AD0C3F11D0303F580634FEAA3
:101D800041504FEA035202EBD12170474FF000005F
:101D900070470000DFF848C170B51CEA111E1EBF75
:101DA0001CEA13159EEA0C0F95EA0C0F00F06F80E9
:101DB00081EA030423EA4C134EEAD47E21EA4C1153
:101DC00041F4801143F48013AE44A1FB024CA0FB0C
:101DD0000365AEF17F7E361955EB0C05A1FB034C74
:101DE0004CF10003A0FB021C16EB0C06654153F1FD
:101DF0000003094218BF46F0010613F4007F0BD11F
:101E00004FEA03314FEA0530340341EA155140EA05
:101E100016506FF003020AE04FEAC3214FEAC520D3
:101E2000F40241EA555140EA56506FF0020202EBCB
:101E30002E4201EB025585EACE710AD05FEA440CCE
:101E400018BF24F0004450F1000041F1000120EAE5
:101E5000D47040F2FE7C624500D270BDA84214BF2F
:101E60004FF080444FF04044002E08BF0024BEF1E4
:101E7000806FA8BFA1F1C041BDE8704080F28280B0
:101E80004FF0000001F1C04101F0004170479EEAAF
:101E90000C0F0CEA131518BF95EA0C0F06D04FF083
:101EA000000081EA030E0EF0004170BD00F01CF846
:101EB0008900013E00F007B800F009B84FEA430C72
:101EC0005FEA5C5C08D081EA030100F05BB84FEA8E
:101ED000410C5FEA5C5CF6D14FF0000001497047AD
:101EE0000000FF070000F87F0EF1020E2EF0030E37
:101EF0005EF8046B364205D4012A43EB030515F561
:101F0000001F12D8012841EB010C1CF5001F0CD852
:101F10000ED14FEAD17C15F5001F0CEB4C0C0CF1E7
:101F2000020C08BF4CEBD37C04E04FF0080C01E03E
:101F30004FEAD37C0CEB4C0526FA05F606F00706B3
:101F4000B6F1040C06D20EEB860CBDE870404CF0E6
:101F5000010C6047DFE80CF0090B02024FF0004172
:101F60004FF00000A1F5002170BD19461046012870
:101F700051EB010418BFD4F5001484BF002001F018
:101F8000004170BD0808A0F500114FEA310170470B
:101F900043004FEAD30C4FEA3C0C43401FBF4007BD
:101FA0000CF1605113F0FE4F70471CF0006F03D12D
:101FB00000200CF0004170470CF0004343EA5070E1
:101FC00010B540EACC0000F0B0F800BF000000926D
:101FD0004FEA0001FFF7D6BF4FF000414FF000007D
:101FE000A1F5002170470000C10DD1F19E0206DB72
:101FF0004FEA002343F0004323FA02F07047004207
:1020000007D54FEA4001B1F1FE4F02D24FF0000078
:10201000704710B500F089F849922480002070477D
:102020006FEA2000704700004FF47F0C1CEAD012CA
:102030001EBF1CEAD11392EA0C0F93EA0C0F00F0BA
:10204000478090EA010F48BF42F480724FF0004C85
:102050004CEA00204CEA012102EB0302A0FB011331
:10206000A2F50002002918BF43F001035B0028BF5E
:102070004FEA330342EB22425FEA132C4CEBC2508F
:102080002EBFBCEB436FB2F57C0F70474FEA036C79
:10209000BCF1004F08BF20F00100B2F57C0F38BF43
:1020A00070470BD582F0FF0212F5803FC8BF704722
:1020B00000F1C040D8BF00F00040704700F5000CB0
:1020C0005FEA4C0C48BF7047B0F1C04000F073B8F5
:1020D00090EA010F0CEAD11348BF42F480726245C6
:1020E00038BF634504D280EA010000F00040704729
:1020F00010B500F01AF800BF8900013E00F007B8E3
:1021000000F009B85FEA410C5FEA1C6C08D080EA75
:10211000010000F050B85FEA400C5FEA1C6CF6D199
:102120004FF00040A0F5800070470EF1020E2EF037
:10213000030E5EF8044B244204D44FEA4102B2F18C
:102140007F4F11D84FEA4003B3F17F4F0CD80ED127
:102150004FEAD07CB2F17F4F0CEB4C0C0CF1020C2F
:1021600008BF4CEBD17C04E04FF0080C01E04FEAD3
:10217000D17C0CEB4C0324FA03F404F00704B4F113
:10218000040C06D20EEB840CBDE810404CF0010CA0
:102190006047DFE80CF0070802024FF00040A0F5AE
:1021A000800010BD0846420018BFD2F1807288BF7F
:1021B00000F0004010BDFF2141EAD050C00570473B
:1021C0000000000000000000002F000000000700D9
:1021D000070000147F147F1400242A7F2A12006253
:1021E00064081323003649552250000005030000FF
:1021F00000001C224100000041221C000014083E87
:1022000008140008083E0808000000A0600000084C
:1022100008080808000060600000002010080402A0
:10222000003E5149453E0000427F4000004261515E
:102230004946002141454B31001814127F100027F8
:1022400045454539003C4A494930000171090503BB
:1022500000364949493600064949291E00003636EC
:10226000000000005636000000081422410000144F
:10227000141414140000412214080002015109062C
:1022800000324959513E007C1211127C007F4949AD
:102290004936003E41414122007F4141221C007FDE
:1022A00049494941007F09090901003E4149497AEC
:1022B000007F0808087F0000417F41000020404166
:1022C0003F01007F08142241007F40404040007FD2
:1022D000020C027F007F0408107F003E4141413E16
:1022E000007F09090906003E4151215E007F09195E
:1022F00029460046494949310001017F0101003F5B
:102300004040403F001F2040201F003F4038403FDA
:10231000006314081463000708700807006151493E
:10232000454300007F41410000552A552A550000D1
:1023300041417F000004020102040040404040404F
:10234000000001020400002054545478007F4844E7
:10235000443800384444442000384444487F00381E
:102360005454541800087E0901020018A4A4A47C47
:10237000007F080404780000447D40000040808411
:102380007D00007F102844000000417F4000007C59
:1023900004180478007C0804047800384444443865
:1023A00000FC242424180018242418FC007C0804B1
:1023B000040800485454542000043F444020003C8A
:1023C0004040207C001C2040201C003C4030403C11
:1023D000004428102844001CA0A0A07C00446454A1
:1023E0004C441414141414140000000000000000E5
:1023F000000000000000FC000000000002000000DF
:10240000000C020C020000000000000090D0BCD0C4
:10241000BC900003000300001824FE448C0003025B
:10242000070201001824D8B04C800003000102010B
:10243000C038E438E0000102020102020806000090
:102440000000000000000000000000F8040200008E
:1024500000010204000204F8000000040201000070
:102460009060F86090000000010000002020FC2037
:10247000200000000100000000000000000008062D
:1024800000000000202020202000000000000000AC
:102490000000000000000002000000000080601C3E
:1024A0000200040300000000F8040404F800010224
:1024B000020201000008FC0000000002030200000C
:1024C0001884442418000302020202000804242491
:1024D000D80001020202010040B088FC8000000028
:1024E000000302003C242424C40001020202010073
:1024F000F824242CC0000102020201000C04E41C98
:102500000400000003000000D8242424D8000102A5
:102510000202010038444444F800000302020100B2
:102520000000100000000000020000000000200079
:102530000000000006000000002050880402000097
:1025400000000102909090909000000000000000B8
:102550000002048850200002010000001804C42476
:102560001800000002000000F804E494F8000102E2
:102570000202020000E09CF080000203000003025F
:1025800004FC2424D800020302020100F80404041D
:102590000C0001020202010004FC0404F800020322
:1025A0000202010004FC24740C0002030202030076
:1025B00004FC24740C00020302000000F008044430
:1025C000CC4000010202010004FC2020FC040203B4
:1025D000000003020404FC040400020203020200DF
:1025E000000404FC040406040403000004FC24D0DA
:1025F0000C0402030200030204FC040000000203B6
:1026000002020203FC3CC03CFC0003000300030088
:1026100004FC30C4FC04020302000300F8040404B8
:10262000F80001020202010004FC24241800020345
:1026300002000000F8848404F8000102020705008B
:1026400004FC2464980002030200030218242444BA
:102650008C000302020201000C04FC040C000002C6
:102660000302000004FC0000FC040001020201005F
:10267000047C80E01C040000030000001CE03CE03F
:102680001C00000300030000049C609C0400020383
:1026900000030200041CE01C04000002030200000E
:1026A0000C84641C04000203020203000000FE020A
:1026B0000200000007040400000E30C0000000000B
:1026C00000010200000202FE0000000404070000F6
:1026D00000040204000000000000000000000000F0
:1026E00000000808080808080000020000000000B8
:1026F000000000000040A0A0C00000010202030290
:1027000004FC2020C00000030202010000C02020C1
:10271000600000010202020000C02024FC00000151
:102720000202030200C0A0A0C000000102020200D9
:102730000020F82424040002030202000040A0A0AC
:10274000602000070A0A0A0404FC2020C0000203DB
:10275000020003020020E400000000020302000067
:10276000000020E4000008080807000004FC80E0E6
:1027700020200203020003020404FC000000020205
:1027800003020200E020E020C00003000300030079
:1027900020E02020C00002030200030200C020202D
:1027A000C00000010202010020E02020C000080F4C
:1027B0000A02010000C02020E0000001020A0F0808
:1027C00020E0402020000203020000000060A0A0E2
:1027D00020000002020203000020F8200000000098
:1027E0000102020020E00020E000000102020302DA
:1027F00020E0208060200000030100006080E08075
:1028000060000003000300002060806020000203DD
:102810000003020020E0208060200808070100007B
:102820000020A0602000000203020200000020DE61
:102830000200000000070400000000FF000000008C
:10284000000F00000002DE2000000004070000006E
:102850000201020404020000000000000000000069
:10286000000000000000000000000000000000F870
:1028700000000000000000333000000000100C06D3
:10288000100C0600000000000000000040C078406E
:10289000C0784000043F04043F040400007088FC3A
:1028A00008300000001820FF211E0000F008F00092
:1028B000E018000000211C031E211E0000F0088803
:1028C000700000001E2123241927211010160E006D
:1028D000000000000000000000000000000000E018
:1028E000180402000000000718204000000204182D
:1028F000E00000000040201807000000404080F089
:10290000804040000202010F01020200000000F0BE
:10291000000000000101011F010101000000000092
:102920000000000080B07000000000000000000007
:102930000000000000010101010101010000000090
:102940000000000000303000000000000000000027
:1029500080601804006018060100000000E0100804
:102960000810E000000F102020100F00001010F8D9
:10297000000000000020203F202000000070080818
:102980000888700000302824222130000030088898
:10299000884830000018202020110E000000C020C0
:1029A00010F8000000070424243F240000F80888E1
:1029B000880808000019212020110E0000E010886E
:1029C00088180000000F112020110E0000380808A0
:1029D000C83808000000003F0000000000708808B0
:1029E00008887000001C222121221C0000E0100831
:1029F0000810E0000000312222110F00000000C08A
:102A0000C000000000000030300000000000008026
:102A10000000000000008060000000000000804016
:102A2000201008000001020408102000404040402F
:102A30004040400004040404040404000008102082
:102A400040800000002010080402010000704808C7
:102A50000808F0000000003036010000C030C8282F
:102A6000E810E0000718272423140B000000C038EA
:102A7000E0000000203C23020227382008F8888864
:102A800088700000203F202020110E00C030080870
:102A900008083800071820202010080008F8080847
:102AA0000810E000203F202020100F0008F8888840
:102AB000E8081000203F20202320180008F888880C
:102AC000E8081000203F200003000000C030080884
:102AD0000838000007182020221E020008F808000D
:102AE0000008F808203F210101213F20000808F8D4
:102AF000080800000020203F2020000000000808F7
:102B0000F8080800C08080807F00000008F888C0B6
:102B100028180800203F20012638200008F8080067
:102B200000000000203F20202020300008F8F8009E
:102B3000F8F80800203F003F003F200008F830C0B0
:102B40000008F808203F200007183F00E0100808A0
:102B50000810E0000F10202020100F0008F80808CF
:102B60000808F000203F210101010000E0100808E2
:102B70000810E0000F18242438504F0008F8888807
:102B800088887000203F2000030C302000708808E7
:102B9000080838000038202121221C00180808F8F5
:102BA000080818000000203F2000000008F8080076
:102BB0000008F808001F202020201F000878880047
:102BC00000C83808000007380E010000F80800F8B7
:102BD0000008F800033C0700073C03000818688061
:102BE0008068180820302C03032C30200838C800D7
:102BF000C83808000000203F200000001008080826
:102C0000C83808002038262120201800000000FEC7
:102C1000020202000000007F40404000000C30C073
:102C200000000000000000010638C000000202029F
:102C3000FE000000004040407F0000000000040251
:102C4000020204000000000000000000000000007C
:102C5000000000008080808080808080000202046C
:102C60000000000000000000000000000000808064
:102C7000808000000019242222223F2008F80080D2
:102C800080000000003F112020110E000000008095
:102C900080800000000E1120202011000000008024
:102CA0008088F800000E112020103F200000808056
:102CB00080800000001F222222221300008080F06A
:102CC000888888180020203F202000000000808095
:102CD00080808000006B94949493600008F80080DA
:102CE00080800000203F210000203F200080989835
:102CF000000000000020203F202000000000008095
:102D00009898000000C08080807F000008F80000D4
:102D100080808000203F24022D302000000808F829
:102D2000000000000020203F2020000080808080E4
:102D300080808000203F20003F20003F8080008076
:102D400080800000203F210000203F200000808084
:102D500080800000001F202020201F008080008035
:102D60008000000080FFA12020110E0000000080E4
:102D700080808000000E112020A0FF8080808000D5
:102D80008080800020203F21200001000000808002
:102D9000808080000033242424241900008080E0F7
:102DA000808000000000001F2020000080800000C4
:102DB00000808000001F202020103F2080808000A5
:102DC0000080808000010E300806010080800080B5
:102DD000008080800F300C030C300F0000808000DA
:102DE000808080000020312E0E3120008080800005
:102DF0000080808080818E701806010000808080B5
:102E0000808080000021302C222130000000000052
:102E1000807C020200000000003F404000000000F3
:102E2000FF00000000000000FF0000000002027C24
:102E3000800000000040403F00000000000601014B
:102E40000202040400000000000000000000000076
:102E50000000000000000000000000000000000072
:102E60000000000000000000000000000000000062
:102E70000000000000F0F0F0000000000000000082
:102E800000017F010000000000000000001C1C1C6D
:102E90000000000000008060301C8C60301C0C00C2
:102EA0000000000000000000000000000000000022
:102EB0000000000000000000000000E00000000032
:102EC00000E000000086E69F86868686E69F8600F4
:102ED00000011F01010101011F010100000080C06C
:102EE0006020F820E0C00000000003070C18FF700D
:102EF000E18100000000070F10107F100F07000095
:102F00008060206080000000E02000000F30203052
:102F10009F70DC371030C0000000100E030007184F
:102F2000101807000000C02020E0C00000000000D2
:102F300080E01F38E88703C43C040000070F181026
:102F4000100B070D1010080000808C4C380000009A
:102F50000000000000000000000000000000000071
:102F60000000000000000000000000000000000061
:102F7000000080E0300804000000000000FEFF01B7
:102F800000000000000000000000030F18204000B7
:102F900000040830E0800000000000000000000095
:102FA00001FFFE0000000000004020180F03000099
:102FB00000000000000000000000C0000000000051
:102FC000004266663C18FF183C666642000000003E
:102FD000000003000000000000000000000080006E
:102FE00000000000001010101010FF101010101042
:102FF00000000000000003000000000000000000CE
:1030000000000000000000000000000000000000C0
:103010000000000000808C4C380000000000000020
:103020000000000000000000000000000010101070
:103030001010101010101000000000000000000020
:103040000000000000000000000000000000000080
:1030500000000000000000000000000000001C1C38
:103060001C00000000000000000000000000000044
:10307000E0380C000000000080701C03000000001D
:103080000060380E0100000000000000000080C059
:1030900060202060C080000000FEFF0100000000F2
:1030A00001FFFE000001070E181010180E070100A6
:1030B0000000808080C0E0000000000000000000F0
:1030C00000FFFF000000000000001010101F1F1084
:1030D000101000000080402020202060C0800000F0
:1030E00000030300804020381F070000001C1A194D
:1030F00018181818181F00000080C020202060C079
:1031000080000000000303001010182FE78000006B
:1031100000070F10101010180F070000000000002B
:103120000000C0E0F000000000C0B088868180FF91
:10313000FF808000000000000010101F1F10100012
:103140000000E060606060606060000000003F10B0
:1031500008080818F0E0000000070B101010101C01
:103160000F030000000080C040202020E0C00000CD
:1031700000FCFF211008080818F0E0000001070C0F
:1031800018101010080F03000000C0E060606060BD
:1031900060E06000000003000000E018070000008D
:1031A00000000000001F1F00000000000080C06041
:1031B0002020202060C080000087EF2C18183030BD
:1031C00068CF830000070F0810101010180F0700B9
:1031D0000000C0C020202020C0800000001F3F60F1
:1031E0004040402010FFFE0000000C1C1010100892
:1031F0000F030000000000000000000000000000BD
:1032000000000000000E0E0E000000000000000094
:10321000001C1C1C0000000000000000000000005A
:103220000000000000000000000C0C000000000086
:1032300000000000005838000000000000000000FE
:10324000000000804020100000001028448201008F
:10325000000000000000000000000102040810004F
:1032600000000000000000000000000000848484D2
:1032700084848484848484000000000000000000B2
:10328000000000000000102040800000000000004E
:103290000000000000000182442810000000100817
:1032A000040201000000000000C0202010101010D7
:1032B00030E0C0000003030000F010080C0703001A
:1032C000000000001C1C1C0000000000000000C0EA
:1032D000406020202040C00000FCFF01F00E03C130
:1032E000FE03807F0001070E08111110110904026E
:1032F0000000000080E0E000000000000000807C92
:103300004340477FF880000010181F1000000000A5
:10331000131F1C1020E0E02020202060C08000004F
:1033200000FFFF10101010182FE78000101F1F1053
:1033300010101010180F0700000080C0402020203F
:103340002060E00000FCFF01000000000000010020
:103350000001070E181010100804030020E0E02000
:1033600020202040C080000000FFFF00000000007F
:1033700001FFFE00101F1F10101018080E0701009B
:1033800020E0E020202020202060800000FFFF10AF
:103390001010107C00000000101F1F1010101010E3
:1033A0001018060020E0E02020202020606080002F
:1033B00000FFFF101010107C00000100101F1F10F4
:1033C0000000000000000000000080C060202020FD
:1033D00040E0000000FCFF0100004040C0C1404050
:1033E0000001070E181010100F0F000020E0E02061
:1033F0000000000020E0E02000FFFF10101010107F
:1034000010FFFF00101F1F1000000000101F1F10F2
:103410000000202020E0E02020200000000000002C
:1034200000FFFF000000000000001010101F1F1020
:103430001010000000000000202020E0E0202020EC
:1034400000000000000000FFFF0000000060E080BE
:103450008080C07F3F00000020E0E020000020A02E
:103460006020200000FFFF30187CE3C00000000057
:10347000101F1F10000001131F1C181020E0E02077
:10348000000000000000000000FFFF00000000003E
:1034900000000000101F1F10101010101018060060
:1034A00020E0E0E000000000E0E0E02000FF013F5D
:1034B000FEC0E01E01FFFF00101F1000031F0300ED
:1034C000101F1F1020E0E0C0000000000020E020DE
:1034D00000FF0003071C78E08000FF00101F1000B1
:1034E00000000000030F1F00000080C0602020606B
:1034F000C080000000FEFF010000000000FFFE0091
:103500000001070E181010180C07010020E0E02041
:103510002020202060C0800000FFFF2020202020ED
:10352000301F0F00101F1F100000000000000000DF
:10353000000080C060202060C080000000FEFF010D
:103540000000000000FFFE000001070E1111133CF7
:103550007C67210020E0E0202020202060C0800047
:1035600000FFFF101030F0D0080F0700101F1F10D1
:10357000000000030F1C10100080C06020202020DD
:103580004040E00000070F0C1818303060E0810068
:10359000001F0C0810101010180F0700806020206A
:1035A00020E0E020202060800100000000FFFF00FC
:1035B0000000000100000000101F1F1000000000AC
:1035C00020E0E020000000000020E02000FFFF00DD
:1035D000000000000000FF0000070F18101010107E
:1035E000100807002060E0E02000000020E06020DC
:1035F0000000077FF88000807C03000000000000CE
:10360000071F1C070000000020E0E02000E0E02091
:103610000020E0200007FFF8E01FFFFCE01F000093
:103620000000031F0300011F03000000002060E0F2
:10363000A0000020E0602000000000038F7CF8C69E
:10364000010000000010181E130001171F181000C1
:103650002060E0E02000000020E060200000010782
:103660003EF8E0180700000000000010101F1F10B7
:103670001000000000806020202020A0E0E020005A
:1036800000000000C0F03E0F0300000000101C1FEF
:1036900017101010101806000000000000FC0404B1
:1036A000040404000000000000FF0000000000000F
:1036B00000000000007F404040404000000010E05B
:1036C000000000000000000000000000031C6080FB
:1036D0000000000000000000000000030C708000EB
:1036E00000000404040404FC0000000000000000CA
:1036F000000000FF00000000000040404040407F0C
:103700000000000000000010080C040C081000006D
:1037100000000000000000000000000000000000A9
:103720000000000000000000000000000000000099
:103730000000000000000000000000000000000089
:103740008080808080808080808080800000000475
:103750000408080000000000000000000000000055
:103760000000000000000000000000000000000059
:10377000000000000000000000000000000098D8D9
:1037800044642424FCF80000000F1F1810101008D7
:103790001F1F10180020E0F00000000000000000D3
:1037A0000000FFFF180804040CF8F00000001F0FD1
:1037B00018101010180F0300000000000000000097
:1037C0000000000000E0F8180404043C3800000089
:1037D00000030F0C1010101008060000000000007D
:1037E00000000020E0F0000000E0F81C04040408E1
:1037F000FFFF000000030F18101010081F0F080033
:103800000000000000000000000000000000E0F8E0
:10381000484444444C7870000000030F0C1810100A
:10382000100804000000000080C0602020E0C000FC
:1038300000040404FFFF040404040000000010104E
:103840001F1F10101000000000000000000000000A
:1038500000000000000070F88C04048CF874040C64
:10386000007076CF8D8D8D89C87870000020E0F0D3
:1038700000000000000000000000FFFF0804040436
:10388000FCF8000000101F1F100000101F1F100088
:103890000000000000606000000000000000040460
:1038A00004FCFC000000000000001010101F1F109E
:1038B0001010000000000000000000606000000028
:1038C00000000000040404FCFC0000000000C0C074
:1038D0008080C07F3F0000000020E0F0000000007A
:1038E000000000000000FFFF80C0F41C0404000082
:1038F00000101F1F1100031F1C10100000002020CB
:1039000020E0F000000000000000000000FFFF00C9
:103910000000000000001010101F1F101010000009
:1039200000000000000000000000000004FCFC0893
:1039300004FCFC0804FCFC00101F1F10001F1F10DB
:10394000001F1F1000000000000000000000000029
:103950000004FCFC08080404FCF8000000101F1F11
:10396000100000101F1F10000000000000000000E9
:103970000000000000E0F0180C04040C18F0E00057
:1039800000030F0C101010100C0F030000000000BB
:1039900000000000000000000004FCFC0804040417
:1039A0000CF8F0000080FFFF889010101C0F03003F
:1039B00000000000000000000000000000E0F81C13
:1039C00004040408F8FC000000030F18101090888D
:1039D000FFFF800000000000000000000000000069
:1039E000040404FCFC100804040C0C001010101F4C
:1039F0001F10101000000000000000000000000078
:103A00000000000000003078CCC48484840C1C00CA
:103A100000001E1810101011190F06000000000001
:103A200000C000000000000000040404FFFF0404C4
:103A300004000000000000000F1F1010100C000018
:103A40000000000000000000000000000004FCFE78
:103A500000000004FCFE000000000F1F18101008FA
:103A60001F0F080000000000000000000000000020
:103A700000040C3CFCC40000C43C0C04000000002A
:103A8000010F1E0E010000000000000000000000F9
:103A900000000000043CFCC400E47CFC84807C0446
:103AA0000000071F070000071F07000000000000BC
:103AB00000000000000000000004041C7CE4C0348E
:103AC0001C0404000010101C1601131F1C18100009
:103AD00000000000000000000000000000040C3C9A
:103AE000FCC400C43C0404000000C080C1370E01C7
:103AF00000000000000000000000000000000000C6
:103B000000001C0404C4F47C1C0400000000101C11
:103B10001F17111010180E0000000000000000F820
:103B20000C04000000000000001028EF000000005E
:103B3000000000000000003F6040000000000000A6
:103B40000000FF0000000000000000000000FF0077
:103B500000000000000000000000FF000000000066
:103B60000000040CF800000000000000000000004D
:103B7000EF28100000000000000040603F0000003F
:103B8000000000000018060202040810202030087F
:103B90000000000000000000000000000000000025
:103BA00000000000000000001060028C0000FE9287
:103BB00092929292FE00000004047E01407E4242F6
:103BC0007E427E42427E40000000FC242424FC25EC
:103BD0002624FC242424040040308F80844C552566
:103BE0002525554C808080001010D0FF9014E4AF44
:103BF000A4A4A4AFE4040000040300FF00894B2A3E
:103C00001A0E1A2A4B8880001010909090909010F5
:103C100010FF101011161000002060203F1010102F
:103C200000030C102040F80000FC848484FC001089
:103C300010101010FF101000003F1010103F000077
:103C4000010640807F00000020102CE7242400F0B3
:103C50001010FF1010F000000101017F211100077A
:103C60000202FF020207000000F8012220222AF2CD
:103C70002222222202FE000000FF00001F01017F1D
:103C800009110F40807F00004030EF2424402010B5
:103C90000C23CC102040400001017F2111000109BC
:103CA0001121D10D03000000001012929292929205
:103CB00092121202FE0000000000003F10101010CF
:103CC0003F0040807F00000000FE225A860888687E
:103CD000180FE8080808080000FF04080720110D65
:103CE00041817F010509300080908C848484F586B1
:103CF00084848484948C80000080808446492810C9
:103D0000102C2340800000001010FF1010F0000065
:103D1000FE222222FE00000080601F00003F404083
:103D20004F4444444F407800100C0424242425269A
:103D3000A464240404140C00020202020242827FE2
:103D4000020202020202020008C8484848C8088865
:103D500088FF48298A080800206724241417504443
:103D6000242316192442F800001010101010111608
:103D700010905030100000000040201010284442E5
:103D80004140404040404000000000C080808080B2
:103D9000808080FC84808080808080C0C0000000A3
:103DA000000000FF7F404040404040FF4040404016
:103DB000404040FF7F0000000000000000000000C5
:103DC0000000007F70000000000000000000000004
:103DD000000000000000000000000000000000FCE7
:103DE000F8000000000000000000000000000000DB
:103DF00000000000FFFE020202020202020202FFB5
:103E0000FF020202020202020202FF03000000009F
:103E1000000000001F1F040404040404040404FF41
:103E2000FF0404040404040404041F000000000050
:103E30000000000000000000000000000000007F03
:103E40003F00000000000000000000000000000033
:103E50000000000000000000000000000000000062
:103E600000000000000000000000000000F8F8F072
:103E7000F0702000000000000000000000000000C2
:103E80000000000000000000000000000000000032
:103E900000000000000000008000000000000000A2
:103EA00000000000000000000000000000FFFFFF15
:103EB000FF00000000000000000000000000000003
:103EC00000000000808000000000000000000000F2
:103ED000000000000000000000FFFFFE06060606CE
:103EE00006060606060606060606060606FFFFFF87
:103EF000FF06060606060606060606060606060669
:103F0000060606FFFFFFFF0702000000000000009A
:103F1000000000000000000000FFFFFF00000000A4
:103F200000000000000000000000000000FFFFFF94
:103F3000FF00000000000000000000000000000082
:103F4000000000FFFFFFFF00000000000000000075
:103F5000000000000000000000FFFFFF1818181804
:103F600018181818181818181818181818FFFFFF1C
:103F7000FF181818181818181818181818181818DA
:103F8000181818FFFFFFFF000000000000000000ED
:103F9000000000000000000002010100000000001D
:103FA00000000000000000000000000000FFFFFF14
:103FB000FF00000000000000000000000000000002
:103FC00000000001010000000000000000000000EF
:103FD00000000000000000000000000000000000E1
:103FE00000000000000000000000000000FFFFFFD4
:103FF000FF000000000000000000000000000000C2
:1040000000000000000000000000000000000000B0
:1040100000000000000000000000000000000000A0
:10402000000000000000000000000000001F1F0F43
:104030000F00000000000000000000000000000071
:104040000000000000000000000000000000000070
:104050007040000800000020580E00006C010008AD
:10406000CC430008580E0020100B0000D0010008BF
:104070001301000120050102030404000A250607BC
:1040800008090204060800016004A24A040B613F0B
:1040900050110003050911FF118905C300E000F06C
:1040A00000F82A00083A4428FF11AA440001500BE6
:1040B000830138448292927401831120087C44FF6A
:1040C000017D7D7D04410550047D01FF8D910271CC
:1040D000A1023B017E81419149F20101011BC230E5
:1040E000083F3F0303F3131101100601F111618131
:1040F000402005816111F14733414107200401C18E
:104100002120A321C11431193137040736D33303D9
:10411000033F3F426006E0E000007FA8167FB44006
:10412000040618060A1008000040407F4040A41012
:10413000041F204001A3201F143300600E600430D0
:104140000C03460534C21004070706017009040475
:104150000484444444840780050484C40415011283
:104160000A71112140073D0707C9200F00001018F0
:1041700014121100000F1010100F0F131F101560F4
:104180000D081012120D00001800000D120A51291E
:104190005130015E01528001013B4514047F030C44
:1041A000A915DE1C05385454582503080A200404B8
:1041B0007800003C40407C2000092CFFAAAAAA28D5
:1041C0000800FF681006264949493210100502040C
:1041D00008100F0D6F00049D01040D9D0004156370
:1041E00043F80801240500F81860E82404806018EA
:1041F000235720202923E01021A310E01449B431D3
:104200003908043C886818630D15FF037DEA039D97
:10421000FF0371144DFF031D06043D2E040942E9FE
:104220001C0640202020C04A04110721EA3E4052CB
:104230000452600E8118712951070D4769031C064D
:104240000C0A0A090C0004156B2D00042F080FF24C
:104250000610060C0809090E071D18043005090987
:10426000090F0A512951070DFF00040D2200040D0A
:104270005118052005E0F8FCFE017EFC11030C0539
:104280002880C0C0C0270572FF013804E6E6E64872
:1042900010080707C7F7FB381C01012C405804CC55
:1042A000CCCC0800053001070F0E400134FC81C062
:1042B00015040E2CF00903B0040F3FFF010C04306D
:1042C0007F3F0FFA086203010E3701D906B2C00121
:1042D0000D24E506A00680E0F0F8FCFFC1012911DD
:1042E0000715F0E00F000416C0E0FC38A005FF7FC2
:1042F000BFDF4808041AFCF08034A53E0006111FF9
:104300000FF7FBFD910D10F809000411031F7F400A
:104310000114580E141FD2081963B0049FBF7F47C1
:10432000D3F8F0C90405169F0F07033D46F80210A5
:104330000DFEFDFDFBFBF7F7FFE7E7E7EF011004DC
:10434000E7EFF7014805FBFBFFFD590714FEF843B3
:1043500003280F1F010E54060F09040518E0E0E0C2
:1043600060C60D1F540335709207C7829F0191BD2F
:10437000011C402D6C040A13E0862BFEFC7F0919FA
:10438000C8160FB0BBF8F88710043F1F0F01B91B08
:104390000E19FE4F0B2D050CBA1FABBC05F8F8F03B
:1043A000F012040C041EFF7F03770BC80703070FEE
:1043B0001F3F3F49193C0C072F7F3F1F1F07030575
:0C43C0000D0D1DE60C6D22080000000031
:0400000508000131BD
:00000001FF
