:020000040800F2
:10000000081A00201D020008DD0800086F0700081C
:10001000D9080008B90500081B12000800000000FC
:10002000000000000000000000000000350F000884
:100030003D06000800000000110F000895100008A0
:1000400037020008370200083702000837020008AC
:10005000370200083702000837020008370200089C
:10006000370200083702000837020008370200088C
:10007000370200083702000837020008370200087C
:10008000370200083702000837020008370200086C
:10009000370200083702000837020008370200085C
:1000A000370200083702000837020008370200084C
:1000B000370200083702000837020008370200083C
:1000C000370200083702000837020008370200082C
:1000D000370200083511000837020008370200080F
:1000E000370200083702000837020008370200080C
:1000F00037020008370200083702000837020008FC
:1001000037020008370200083702000837020008EB
:1001100037020008370200083702000837020008DB
:1001200037020008370200083702000837020008CB
:1001300000F002F800F063F80AA090E8000C824496
:100140008344AAF10107DA4501D100F058F8AFF273
:10015000090EBAE80F0013F0010F18BFFB1A43F0A5
:1001600001031847BC320000DC32000010F8013BEC
:100170000A4413F0030408BF10F8014B1D1108BF17
:1001800010F8015B641E05D010F8016B641E01F8C5
:10019000016BF9D1002D15D010F8014B03F00C03C1
:1001A0000C2BA1EB04040ABF10F8013BA4EB831451
:1001B000A4EB032405F1010314F8016B5B1E01F8A5
:1001C000016BF9D5914238BF10F8013BD1D370478C
:1001D0000023002400250026103A28BF78C1FBD850
:1001E000520728BF30C148BF0B607047642900F038
:1001F0007380002070471FB51FBD10B510BD00F003
:10020000A8F91146FFF7F7FF01F056F900F0C6F91B
:1002100003B4FFF7F2FF03BC01F008F80948804778
:1002200009480047FEE7FEE7FEE7FEE7FEE7FEE7D8
:10023000FEE7FEE7FEE7FEE704480549054A064BF0
:1002400070470000D5100008310100080814002094
:10025000081A002008160020081600207047000029
:100260000FB41CB5074B06AA7B446946009005985D
:1002700000F057F90020694600F066F91CBC5DF8F3
:1002800014FB0000DD02000070B5044685690068BB
:10029000C10601D5302600E02026C00707D070BD7A
:1002A000D4E9012130469047206A401C20626D1E2F
:1002B000F6D570BD70B5044685690078C00707D1D2
:1002C00070BDD4E9012120209047206A401C2062A3
:1002D0006D1EF6D570BD00002DE9F04106460024E4
:1002E00010687529314616A510D0AFF3008000289C
:1002F00002DA404213A507E031688A0701D512A54A
:1003000002E0490704D511A5012401E0AFF3008004
:1003100000210A2206F1240709E0B0FBF2FCB0FB41
:10032000F2F302FB1C00303078541846491C0028B8
:10033000F3D123462A463046BDE8F04100F093B899
:10034000000000002D0000002B0000002000000035
:100350002DE9F0474FF0000A89460446C0F820A076
:100360002046E1688847002876D0252806D0D4E9C1
:1003700001219047206A401C2062F1E7E168204695
:1003800000258847C4F81CA006460027C4F818A01A
:100390002A2E09D0304600F042FF38B304EB87081C
:1003A000303EC8F8186019E059F8041B204604EBE9
:1003B00087029161E1688847012F064618D1E069FC
:1003C000002820DA25F020051DE0D8F8180000EB01
:1003D000800006EB40003038C8F818002046E1687D
:1003E0008847064600F01BFF0028EED1012F0AD0F7
:1003F0002E2E08D12046E16888477F1C0646022F32
:1004000045F02005C4DBA069002803DA404245F02E
:100410000105A061E80701D025F01005B6B1A6F1ED
:100420004100192802D8203645F400654A46314675
:10043000204625604D46FFF7D9FE58B1012806D069
:10044000ED1D25F0070000F1080989E704E005F13A
:10045000040985E730468AE7206ABDE8F0877047DF
:100460007047704770472DE9F0470D469946924610
:10047000044600F124080168880604D5E06921F0EB
:100480001001216000E00120A84201DD471B00E0CF
:100490000027A1697A1902EB0900081AA0612078E7
:1004A000C00602D42046FFF7EFFE002608E0D4E99C
:1004B00001211AF806009047206A401C761C206231
:1004C0004E45F4DB2078C0060AD52046FFF7DCFE57
:1004D00006E0D4E9012130209047206A401C2062C8
:1004E000381EA7F10107F4DC07E0D4E9012118F870
:1004F00005009047206A401C2062281EA5F10105D6
:10050000F3DC2046FFF7D6FE2078000602D5022055
:10051000BDE8F0870120FBE701694A1C0261087809
:10052000704700B58FB0CDE9013100210591054933
:100530007944CDE9031011466846FFF709FF0FB073
:1005400000BD0000E5FFFFFF0A6802F8010B0A602A
:100550007047754600F02CF8AE46050069465346D4
:1005600020F00700854618B020B5FFF765FEBDE80E
:1005700020404FF000064FF000074FF000084FF00A
:10058000000B21F00701AC46ACE8C009ACE8C0099B
:10059000ACE8C009ACE8C0098D46704710B5044608
:1005A000AFF300802046BDE81040FFF731BE0000E9
:1005B00000487047A413002000BFFEE708B500F014
:1005C00085FE1349086008460068020E0846006868
:1005D000C0F307430FA11348FFF742FE0120102389
:1005E000104A00210090084600F051FC08480378AA
:1005F0000088C0F307220CA10F48FFF731FE01204D
:1006000010230D4A19460090002000F040FC08BD60
:100610002C0E0020486D64203A202532642E25647B
:10062000252500007813002054656D703A2025328E
:10063000642E2564430000008D13002070472DE9CF
:10064000F041024600250026002000230024002758
:1006500091F803C00CF00F0591F803C00CF0100CDA
:10066000BCF1000F03D091F802C04CEA050591F8E7
:1006700000C0BCF1000F31D0146800202BE04FF017
:10068000010C0CFA00F3B1F800C00CEA03069E421C
:1006900020D183004FF00F0C0CFA03F7BC4305FA8E
:1006A00003FC4CEA040491F803C0BCF1280F06D106
:1006B0004FF0010C0CFA00FCC2F814C00AE091F8EB
:1006C00003C0BCF1480F05D14FF0010C0CFA00FC3F
:1006D000C2F810C0401C0828D1D31460B1F800C083
:1006E000BCF1FF0F34DD546800202EE000F1080C4F
:1006F0004FF0010808FA0CF3B1F800C00CEA030649
:100700009E4221D183004FF00F0C0CFA03F7BC433B
:1007100005FA03FC4CEA040491F803C0BCF1280F6D
:1007200005D100F1080C08FA0CF8C2F8148091F811
:1007300003C0BCF1480F07D100F1080C4FF00108CD
:1007400008FA0CF8C2F81080401C0828CED3546078
:10075000BDE8F0810246002093680B400BB10120F8
:1007600000E000207047416170470161704700BFA1
:10077000FEE7000010B502210A48FFF7F6FF01214D
:100780000848FFF7F2FF00F037F802210548FFF7AD
:10079000EAFF00F031F801210248FFF7E4FF00F022
:1007A0002BF810BD0008014010B502210648FFF7E4
:1007B000DAFF01210448FFF7D8FF00F01DF80221FD
:1007C0000148FFF7D2FF10BD0008014010B502211B
:1007D0000848FFF7CAFF00F00FF801210548FFF7AE
:1007E000C4FF00F009F801210248FFF7BCFF00F048
:1007F00003F810BD00080140032000BF011EA0F156
:100800000102D0B2FAD1704708B50121082000F0EA
:1008100081FB4FF44070ADF8000048208DF80300D4
:1008200003208DF8020069460148FFF708FF08BD64
:10083000000C014010B5044616480078012817D175
:100840001548006818B11448001D006880B90A20D6
:1008500000F010FD00200F4908700F48006808B92B
:10086000012010BD0C48001D006860B90220F8E7A7
:1008700009480068012806D10748001D00680128C2
:1008800001D104490870012C02D1012001490870EE
:100890000020E6E7000000202081214208B5012168
:1008A000042000F037FB0320ADF8000010208DF885
:1008B000030003208DF8020069460648FFF7BFFEDB
:1008C00001210448FFF74FFF02210248FFF74DFFC7
:1008D00008BD00000008014000BFFEE770470000AF
:1008E00070B500240CE0002506E00020074901EB6C
:1008F000C5010855681CC5B2802DF6DB601CC4B26A
:10090000082CF0DB00F004F970BD0000300E002070
:1009100010B504461CB90021A62000F0DDFA012C18
:1009200003D10021A72000F0D7FA10BD10B504466E
:100930003CB90021C82000F0CFFA0021A12000F02E
:10094000CBFA012C07D10021C02000F0C5FA00210C
:10095000A02000F0C1FA10BDF0B514460B46CF1729
:1009600001EB5777C7F3C702CF1701EB5777FF109B
:10097000A1EBC707FEB20123B340DDB24CB1134B6C
:1009800003EBC0039B5C2B43104F07EBC007BB542A
:100990001AE00E4B03EBC0039B5CDB430B4F07EBF2
:1009A000C007BB54094B03EBC0039B5C2B43074FB1
:1009B00007EBC007BB54054B03EBC0039B5CDB4359
:1009C000024F07EBC007BB54F0BD0000300E002003
:1009D00008B50121042000F09DFA0320ADF80000C5
:1009E00014208DF8030003208DF802006946474863
:1009F000FFF725FE03214548FFF7B7FE0420ADF8B9
:100A0000000010208DF8030003208DF802006946D5
:100A10003E48FFF714FE04213C48FFF7A6FE0421E0
:100A20003A48FFF7A0FEC82000F024FC0421374814
:100A3000FFF79BFE0021AE2000F04EFA0021084691
:100A400000F04AFA0021102000F046FA0021402070
:100A500000F042FA0021812000F03EFA0021CF2070
:100A600000F03AFA0021A12000F036FA0021C82057
:100A700000F032FA0021A62000F02EFA0021A82072
:100A800000F02AFA00213F2000F026FA0021D320AE
:100A900000F022FA0021084600F01EFA0021D520BD
:100AA00000F01AFA0021802000F016FA0021D92067
:100AB00000F012FA0021F12000F00EFA0021DA20F5
:100AC00000F00AFA0021122000F006FA0021DB20D3
:100AD00000F002FA0021302000F0FEF90021202071
:100AE00000F0FAF90021022000F0F6F900218D2033
:100AF00000F0F2F90021142000F0EEF9FFF7F0FE0B
:100B00000021AF2000F0E8F908BD00000008014016
:100B100070B500242BE004F1B001C8B2002100F050
:100B2000DBF90021084600F0D7F90021102000F081
:100B3000D3F9FFF71FFE782000F0FEF9FFF746FE1D
:100B4000402000F0F9F9FFF741FE002509E00949CE
:100B500001EBC501085D00F0EFF9FFF737FE681CF7
:100B6000C5B2802DF3DBFFF71FFE601CC4B2082C5A
:100B7000D1DB70BD300E00202DE9FE4F07468846C0
:100B800092461C460197CDF80080082C02D14FF008
:100B900006091FE02046E31704EB5373DB102146E0
:100BA0004FEAE47C04EB5C7C4FEAEC0CA4EBCC0C4D
:100BB000BCF1000F02D04FF0010C01E04FF0000C2F
:100BC0006344224604EBD27C4FEA6C0C03FB0CF32B
:100BD00003F0FF09AAF12000C6B200255EE0082C50
:100BE00007D106EB46002F4901EB400010F805B095
:100BF0001DE00C2C07D106EB46002B4901EB8000D1
:100C000010F805B013E0102C05D1284800EB0610B1
:100C100010F805B00BE0182C07D106EBC6002449EC
:100C200001EB800010F805B001E0BDE8FE8F002068
:100C300002901CE00BF0010028B1414638460C9AA6
:100C4000FFF78AFE09E00C9808B9012000E00020B7
:100C5000024641463846FFF77FFE4FEA6B0B08F12C
:100C6000010000F0FF080298401CC0B202900298F8
:100C70000828DFDB781CC7B2082C0BD004EBD4713A
:100C80004A100199791A8A4204D1019F00980830CC
:100C9000C0B20090DDF80080681CC5B24D459EDBF7
:100CA00000BFC2E790150008B81700082C1C000808
:100CB0001C2200082DE9FC4F0746884616461C46B4
:100CC000BB46CDF804802046E21704EB5272D210E6
:100CD0002146E31704EB5373DB10A4EBC3030BB102
:100CE000012300E000231A44624392B200920025DF
:100CF00055E0102C05D12C4800EB461010F805A04B
:100D00001BE0182C07D106EBC600284901EBC000F8
:100D100010F805A011E0202C05D1254800EBC610E5
:100D200010F805A009E0402C05D1224800EB462030
:100D300010F805A001E0BDE8FC8F4FF000091CE0B1
:100D40000AF0010028B1414638460B9AFFF704FE2D
:100D500009E00B9808B9012000E000200246414656
:100D60003846FFF7F9FD4FEA6A0A08F1010000F082
:100D7000FF0809F1010000F0FF09B9F1080FDFDBFE
:100D8000781CC7B2A7EB0B00A04204D15F460198C4
:100D90000830C0B20190DDF80480681C85B200986C
:100DA0008542A6DB00BFC6E7782F0008583100084F
:100DB000A0310008203200082DE9FF4F05460E46FD
:100DC00017461C46DDF838904FF0000A0095B346F0
:100DD0002046E21704EB5272D2102146E31704EBCF
:100DE0005373DB10A4EBC3030BB1012300E000231A
:100DF0001A44D4B24FF0000845E0002003903BE0D5
:100E00000D9810F80A0002900AF101001FFA80FA0A
:100E1000002001901DE0029800F0010028B14A4630
:100E200031462846FFF798FD0AE0B9F1000F01D1DD
:100E3000012000E00020024631462846FFF78CFDE5
:100E4000029840100290701CC6B20198401CC0B2BB
:100E5000019001980828DEDB681CC5B20098281AAA
:100E6000B84204D1009D0BF1080000F0FF0B5E4674
:100E70000398401CC0B203900398B842C0DB08F14D
:100E8000010000F0FF08A045B7DBBDE8FF8F2DE9AA
:100E9000F84106460F4614461D46DDF81C8013E057
:100EA000CDF8008022782B4639463046FFF764FEA5
:100EB000082D02D1B01DC6B205E0284605EBD07161
:100EC00006EB6101CEB2641C2078202802DB20787A
:100ED0007E28E5DDBDE8F88170B505460C46FFF7D4
:100EE00049FC782000F028F8FFF770FC1CB1402086
:100EF00000F022F802E0002000F01EF8FFF766FC88
:100F0000284600F019F8FFF761FCFFF74DFC70BDB3
:100F10007047000029B1064A92690243044B9A6166
:100F200004E0034A92698243014B9A6170470000D2
:100F3000001002407047000070B5044600251BE019
:100F400004F0800020B102210D48FFF70EFC03E001
:100F500002210B48FFF707FCFFF74EFC0121084870
:100F6000FFF703FCFFF748FC01210548FFF7FBFBF7
:100F70006006040E681CC5B2082DE1DB70BD0000E0
:100F80000008014010B500F001F810BD0CB50020BC
:100F9000019000903348006840F480303149086087
:100FA00000BF3048006800F4003000900198401CF9
:100FB0000190009818B90198B0F5A06FF1D12948B7
:100FC000006800F4003010B10120009001E0002022
:100FD00000900098012843D12348006840F0100099
:100FE000214908600846006820F0030008600846B0
:100FF000006840F0020008601A48406819494860DB
:101000000846406848600846406840F48060486090
:101010000846406820F47C1048600846406840F468
:10102000E81048600846006840F08070086000BF23
:101030000C48006800F000700028F9D009484068AA
:1010400020F00300074948600846406840F002006D
:10105000486000BF0348406800F00C000828F9D140
:101060000CBD00000010024000200240042808D1FE
:101070004FF0E021096941F004014FF0E0221161D5
:1010800007E04FF0E021096921F004014FF0E02270
:10109000116170477047000010B504466FF00400FE
:1010A000FFF7E4FFE11704EB5171C1F3C701074AF1
:1010B00011701046007800EB4001C1EBC0104FF6F4
:1010C000FF7101EAC0000249088010BD0E00002037
:1010D0001000002010B51348006840F001001149CD
:1010E000086008464068104908400E4948600846B4
:1010F00000680E4908400B4908600846006820F463
:10110000802008600846406820F4FE0048604FF4E4
:101110001F008860FFF736FF4FF000600449086049
:1011200010BD0000001002400000FFF8FFFFF6FEB7
:1011300008ED00E010B540F225511D4800F03EF8E2
:1011400010B31B4800F064F8C4B21A48008800F4D9
:101150000040C8B91748008800F4804060B10A2CEC
:1011600003D000201349088020E01248008840F492
:1011700000401049088019E00D2C06D10D48008868
:1011800040F480400B49088010E00A480088C0F312
:101190000D0009490C5407480088401C0549088087
:1011A00008460088C72801DD0020088010BD000027
:1011B000003801400C000020B012002070B502463B
:1011C000002400230025002040F66A16B14200D119
:1011D00000BFC1F3421501F01F03012606FA03F315
:1011E000012D02D19689334006E0022D02D1168AE4
:1011F000334001E0968A33400C12012606FA04F4CB
:101200001688344013B10CB1012000E0002070BDFD
:1012100001468888C0F30800704700BFFEE73038F9
:101220000A2801D2012070470020704700BF704794
:1012300010B56FF00400FFF719FF0A4800680A496B
:10124000B0FBF1F0094908700846007800EB400156
:10125000C1EBC0104FF6FF7101EAC00004490880DD
:1012600010BD00001400002000127A0002000020CF
:10127000040000200146114A12884A434FF0E0233F
:101280005A6100229A611A46126942F001021A61FB
:1012900000BF4FF0E022106900F001021AB100F423
:1012A0008032002AF5D04FF0E022126922F00102CC
:1012B0004FF0E0231A6100229A6170470400002079
:1012C00000BF011EA0F10100FBD170472DE9F041E4
:1012D00080213F48FFF747FA3E48FFF7F1FF8021A2
:1012E0003B48FFF742FA4FF49070FFF7E9FF00F038
:1012F0002BF941F2883600E0761E80213448FFF752
:1013000029FA08B9002EF7DC41F2883600E0761E93
:1013100080212F48FFF71EFA08B1002EF7DC0027C6
:1013200028E041F2883600E0761E80212848FFF749
:1013300011FA08B9002EF7DC40F29310FFF7C0FF56
:1013400080212348FFF706FA30B1221945EB05004A
:10135000541C40F1000501E024196D4141F288362A
:1013600000E0761E80211A48FFF7F4F908B1002E3C
:10137000F7DC7F1C282FD4DB00F0F8F8802114481C
:10138000FFF7F3F9E917200E40EA05202A1841EB90
:1013900025614FEA144040EA0540121841EB25410F
:1013A0004FEA142040EA0560121841EB2520131B78
:1013B00060EB0501D8B2002148404940084302D003
:1013C0000020BDE8F081200A40EA0560F9E700004E
:1013D0000008014080F403001CB53448006801286F
:1013E00004D0022805D003285DD12FE0FFF790FB41
:1013F00059E001202E4940231A46CDE90010002172
:101400000846FFF7D9FC0120102304221421009084
:101410004620FFF74FFC01201023052214210090E5
:101420005A20FFF747FC01201023022228210090B8
:101430004620FFF73FFC01201023032228210090C3
:101440005A20FFF737FCFFF763FB2CE00120194916
:1014500040231A46CDE9001000210846FFF7ACFCF6
:10146000012010230622142100904620FFF722FCC1
:10147000012010230722142100905A20FFF71AFCA4
:10148000012010230222282100904620FFF712FCA1
:10149000012010230322282100905A20FFF70AFC84
:1014A000FFF736FB00BF00BF1CBD0000280E002068
:1014B000280A0020280C00200025FFF7B9FEFFF7BE
:1014C00087FA0020FFF724FA0020FFF72FFA4820C0
:1014D000FFF7E2FDFFF7E2F9FFF796F9FFF77CFF70
:1014E0002BE0681CC5B2642095FBF0F100FB1150A5
:1014F00008B9FFF763F8FFF76FFF0020FFF79AF9CD
:101500000446012C15D10D480068C0430C49C1F8B0
:1015100080010C480068032805DA0A480068401C6E
:101520000849086002E0012006490860FFF754FFFF
:1015300000BF00BF0120FFF79DFED2E780012142DE
:1015400000002142280E002008B58020ADF80000E0
:1015500048208DF8030002208DF8020069460248F9
:10156000FFF76DF808BD00000008014008B58020B5
:10157000ADF8000010208DF8030002208DF8020065
:1015800069460248FFF75BF808BD0000000801400B
:101590000000000000000000002F00000000070015
:1015A000070000147F147F1400242A7F2A1200628F
:1015B000640813230036495522500000050300003B
:1015C00000001C224100000041221C000014083EC3
:1015D00008140008083E0808000000A06000000889
:1015E00008080808000060600000002010080402DD
:1015F000003E5149453E0000427F4000004261519B
:101600004946002141454B31001814127F10002734
:1016100045454539003C4A494930000171090503F7
:1016200000364949493600064949291E0000363628
:10163000000000005636000000081422410000148B
:101640001414141400004122140800020151090668
:1016500000324959513E007C1211127C007F4949E9
:101660004936003E41414122007F4141221C007F1A
:1016700049494941007F09090901003E4149497A28
:10168000007F0808087F0000417F410000204041A2
:101690003F01007F08142241007F40404040007F0E
:1016A000020C027F007F0408107F003E4141413E52
:1016B000007F09090906003E4151215E007F09199A
:1016C00029460046494949310001017F0101003F97
:1016D0004040403F001F2040201F003F4038403F17
:1016E000006314081463000708700807006151497B
:1016F000454300007F41410000552A552A5500000E
:1017000041417F000004020102040040404040408B
:10171000000001020400002054545478007F484423
:10172000443800384444442000384444487F00385A
:101730005454541800087E0901020018A4A4A47C83
:10174000007F080404780000447D4000004080844D
:101750007D00007F102844000000417F4000007C95
:1017600004180478007C08040478003844444438A1
:1017700000FC242424180018242418FC007C0804ED
:10178000040800485454542000043F444020003CC6
:101790004040207C001C2040201C003C4030403C4D
:1017A000004428102844001CA0A0A07C00446454DD
:1017B0004C44141414141414000000000000000021
:1017C000000000000000FC0000000000020000001B
:1017D000000C020C020000000000000090D0BCD001
:1017E000BC900003000300001824FE448C00030298
:1017F000070201001824D8B04C8000030001020148
:10180000C038E438E00001020201020208060000CC
:101810000000000000000000000000F804020000CA
:1018200000010204000204F80000000402010000AC
:101830009060F86090000000010000002020FC2073
:101840002000000001000000000000000000080669
:1018500000000000202020202000000000000000E8
:101860000000000000000002000000000080601C7A
:101870000200040300000000F8040404F800010260
:10188000020201000008FC00000000020302000048
:1018900018844424180003020202020008042424CD
:1018A000D80001020202010040B088FC8000000064
:1018B000000302003C242424C400010202020100AF
:1018C000F824242CC0000102020201000C04E41CD4
:1018D0000400000003000000D8242424D8000102E2
:1018E0000202010038444444F800000302020100EF
:1018F00000001000000000000200000000002000B6
:1019000000000000060000000020508804020000D3
:1019100000000102909090909000000000000000F4
:101920000002048850200002010000001804C424B2
:101930001800000002000000F804E494F80001021E
:101940000202020000E09CF080000203000003029B
:1019500004FC2424D800020302020100F804040459
:101960000C0001020202010004FC0404F80002035E
:101970000202010004FC24740C00020302020300B2
:1019800004FC24740C00020302000000F00804446C
:10199000CC4000010202010004FC2020FC040203F0
:1019A000000003020404FC0404000202030202001B
:1019B000000404FC040406040403000004FC24D016
:1019C0000C0402030200030204FC040000000203F2
:1019D00002020203FC3CC03CFC00030003000300C5
:1019E00004FC30C4FC04020302000300F8040404F5
:1019F000F80001020202010004FC24241800020382
:101A000002000000F8848404F800010202070500C7
:101A100004FC2464980002030200030218242444F6
:101A20008C000302020201000C04FC040C00000202
:101A30000302000004FC0000FC040001020201009B
:101A4000047C80E01C040000030000001CE03CE07B
:101A50001C00000300030000049C609C04000203BF
:101A600000030200041CE01C04000002030200004A
:101A70000C84641C04000203020203000000FE0246
:101A80000200000007040400000E30C00000000047
:101A900000010200000202FE000000040407000032
:101AA000000402040000000000000000000000002C
:101AB00000000808080808080000020000000000F4
:101AC000000000000040A0A0C000000102020302CC
:101AD00004FC2020C00000030202010000C02020FE
:101AE000600000010202020000C02024FC0000018E
:101AF0000202030200C0A0A0C00000010202020016
:101B00000020F82424040002030202000040A0A0E8
:101B1000602000070A0A0A0404FC2020C000020317
:101B2000020003020020E4000000000203020000A3
:101B3000000020E4000008080807000004FC80E022
:101B400020200203020003020404FC000000020241
:101B500003020200E020E020C000030003000300B5
:101B600020E02020C00002030200030200C0202069
:101B7000C00000010202010020E02020C000080F88
:101B80000A02010000C02020E0000001020A0F0844
:101B900020E0402020000203020000000060A0A01E
:101BA00020000002020203000020F82000000000D4
:101BB0000102020020E00020E00000010202030216
:101BC00020E0208060200000030100006080E080B1
:101BD000600000030003000020608060200002031A
:101BE0000003020020E020806020080807010000B8
:101BF0000020A0602000000203020200000020DE9E
:101C00000200000000070400000000FF00000000C8
:101C1000000F00000002DE200000000407000000AA
:101C200002010204040200000000000000000000A5
:101C3000000000000000000000000000000000F8AC
:101C400000000000000000333000000000100C060F
:101C5000100C0600000000000000000040C07840AA
:101C6000C0784000043F04043F040400007088FC76
:101C700008300000001820FF211E0000F008F000CE
:101C8000E018000000211C031E211E0000F008883F
:101C9000700000001E2123241927211010160E00A9
:101CA000000000000000000000000000000000E054
:101CB0001804020000000007182040000002041869
:101CC000E00000000040201807000000404080F0C5
:101CD000804040000202010F01020200000000F0FB
:101CE000000000000101011F0101010000000000CF
:101CF0000000000080B07000000000000000000044
:101D000000000000000101010101010100000000CC
:101D10000000000000303000000000000000000063
:101D200080601804006018060100000000E0100840
:101D30000810E000000F102020100F00001010F815
:101D4000000000000020203F202000000070080854
:101D500008887000003028242221300000300888D4
:101D6000884830000018202020110E000000C020FC
:101D700010F8000000070424243F240000F808881D
:101D8000880808000019212020110E0000E01088AA
:101D900088180000000F112020110E0000380808DC
:101DA000C83808000000003F0000000000708808EC
:101DB00008887000001C222121221C0000E010086D
:101DC0000810E0000000312222110F00000000C0C6
:101DD000C000000000000030300000000000008063
:101DE0000000000000008060000000000000804053
:101DF000201008000001020408102000404040406C
:101E000040404000040404040404040000081020BE
:101E10004080000000201008040201000070480803
:101E20000808F0000000003036010000C030C8286B
:101E3000E810E0000718272423140B000000C03826
:101E4000E0000000203C23020227382008F88888A0
:101E500088700000203F202020110E00C0300808AC
:101E600008083800071820202010080008F8080883
:101E70000810E000203F202020100F0008F888887C
:101E8000E8081000203F20202320180008F8888848
:101E9000E8081000203F200003000000C0300808C0
:101EA0000838000007182020221E020008F8080049
:101EB0000008F808203F210101213F20000808F810
:101EC000080800000020203F202000000000080833
:101ED000F8080800C08080807F00000008F888C0F3
:101EE00028180800203F20012638200008F80800A4
:101EF00000000000203F20202020300008F8F800DB
:101F0000F8F80800203F003F003F200008F830C0EC
:101F10000008F808203F200007183F00E0100808DC
:101F20000810E0000F10202020100F0008F808080B
:101F30000808F000203F210101010000E01008081E
:101F40000810E0000F18242438504F0008F8888843
:101F500088887000203F2000030C30200070880823
:101F6000080838000038202121221C00180808F831
:101F7000080818000000203F2000000008F80800B2
:101F80000008F808001F202020201F000878880083
:101F900000C83808000007380E010000F80800F8F3
:101FA0000008F800033C0700073C0300081868809D
:101FB0008068180820302C03032C30200838C80013
:101FC000C83808000000203F200000001008080862
:101FD000C83808002038262120201800000000FE04
:101FE000020202000000007F40404000000C30C0B0
:101FF00000000000000000010638C00000020202DC
:10200000FE000000004040407F000000000004028D
:1020100002020400000000000000000000000000B8
:1020200000000000808080808080808000020204A8
:1020300000000000000000000000000000008080A0
:10204000808000000019242222223F2008F800800E
:1020500080000000003F112020110E0000000080D1
:1020600080800000000E1120202011000000008060
:102070008088F800000E112020103F200000808092
:1020800080800000001F222222221300008080F0A6
:10209000888888180020203F2020000000008080D1
:1020A00080808000006B94949493600008F8008016
:1020B00080800000203F210000203F200080989871
:1020C000000000000020203F2020000000000080D1
:1020D0009898000000C08080807F000008F8000011
:1020E00080808000203F24022D302000000808F866
:1020F000000000000020203F202000008080808021
:1021000080808000203F20003F20003F80800080B2
:1021100080800000203F210000203F2000008080C0
:1021200080800000001F202020201F008080008071
:102130008000000080FFA12020110E000000008020
:1021400080808000000E112020A0FF808080800011
:102150008080800020203F2120000100000080803E
:10216000808080000033242424241900008080E033
:10217000808000000000001F202000008080000000
:1021800000808000001F202020103F2080808000E1
:102190000080808000010E300806010080800080F1
:1021A000008080800F300C030C300F000080800016
:1021B000808080000020312E0E3120008080800041
:1021C0000080808080818E701806010000808080F1
:1021D000808080000021302C22213000000000008F
:1021E000807C020200000000003F40400000000030
:1021F000FF00000000000000FF0000000002027C61
:10220000800000000040403F000000000006010187
:1022100002020404000000000000000000000000B2
:1022200000000000000000000000000000000000AE
:10223000000000000000000000000000000000009E
:102240000000000000F0F0F00000000000000000BE
:1022500000017F010000000000000000001C1C1CA9
:102260000000000000008060301C8C60301C0C00FE
:10227000000000000000000000000000000000005E
:102280000000000000000000000000E0000000006E
:1022900000E000000086E69F86868686E69F860030
:1022A00000011F01010101011F010100000080C0A8
:1022B0006020F820E0C00000000003070C18FF7049
:1022C000E18100000000070F10107F100F070000D1
:1022D0008060206080000000E02000000F3020308F
:1022E0009F70DC371030C0000000100E030007188C
:1022F000101807000000C02020E0C000000000000F
:1023000080E01F38E88703C43C040000070F181062
:10231000100B070D1010080000808C4C38000000D6
:1023200000000000000000000000000000000000AD
:10233000000000000000000000000000000000009D
:10234000000080E0300804000000000000FEFF01F3
:1023500000000000000000000000030F18204000F3
:1023600000040830E08000000000000000000000D1
:1023700001FFFE0000000000004020180F030000D5
:1023800000000000000000000000C000000000008D
:10239000004266663C18FF183C666642000000007A
:1023A00000000300000000000000000000008000AA
:1023B00000000000001010101010FF10101010107E
:1023C000000000000000030000000000000000000A
:1023D00000000000000000000000000000000000FD
:1023E0000000000000808C4C38000000000000005D
:1023F00000000000000000000000000000101010AD
:10240000101010101010100000000000000000005C
:1024100000000000000000000000000000000000BC
:1024200000000000000000000000000000001C1C74
:102430001C00000000000000000000000000000080
:10244000E0380C000000000080701C030000000059
:102450000060380E0100000000000000000080C095
:1024600060202060C080000000FEFF01000000002E
:1024700001FFFE000001070E181010180E070100E2
:102480000000808080C0E00000000000000000002C
:1024900000FFFF000000000000001010101F1F10C0
:1024A000101000000080402020202060C08000002C
:1024B00000030300804020381F070000001C1A1989
:1024C00018181818181F00000080C020202060C0B5
:1024D00080000000000303001010182FE7800000A8
:1024E00000070F10101010180F0700000000000068
:1024F0000000C0E0F000000000C0B088868180FFCE
:10250000FF808000000000000010101F1F1010004E
:102510000000E060606060606060000000003F10EC
:1025200008080818F0E0000000070B101010101C3D
:102530000F030000000080C040202020E0C0000009
:1025400000FCFF211008080818F0E0000001070C4B
:1025500018101010080F03000000C0E060606060F9
:1025600060E06000000003000000E01807000000C9
:1025700000000000001F1F00000000000080C0607D
:102580002020202060C080000087EF2C18183030F9
:1025900068CF830000070F0810101010180F0700F5
:1025A0000000C0C020202020C0800000001F3F602D
:1025B0004040402010FFFE0000000C1C10101008CE
:1025C0000F030000000000000000000000000000F9
:1025D00000000000000E0E0E0000000000000000D1
:1025E000001C1C1C00000000000000000000000097
:1025F0000000000000000000000C0C0000000000C3
:10260000000000000058380000000000000000003A
:1026100000000080402010000000102844820100CB
:10262000000000000000000000000102040810008B
:10263000000000000000000000000000008484840E
:1026400084848484848484000000000000000000EE
:10265000000000000000102040800000000000008A
:102660000000000000000182442810000000100853
:10267000040201000000000000C020201010101013
:1026800030E0C0000003030000F010080C07030056
:10269000000000001C1C1C0000000000000000C026
:1026A000406020202040C00000FCFF01F00E03C16C
:1026B000FE03807F0001070E0811111011090402AA
:1026C0000000000080E0E000000000000000807CCE
:1026D0004340477FF880000010181F1000000000E2
:1026E000131F1C1020E0E02020202060C08000008C
:1026F00000FFFF10101010182FE78000101F1F1090
:1027000010101010180F0700000080C0402020207B
:102710002060E00000FCFF0100000000000001005C
:102720000001070E181010100804030020E0E0203C
:1027300020202040C080000000FFFF0000000000BB
:1027400001FFFE00101F1F10101018080E070100D7
:1027500020E0E020202020202060800000FFFF10EB
:102760001010107C00000000101F1F10101010101F
:102770001018060020E0E02020202020606080006B
:1027800000FFFF101010107C00000100101F1F1030
:102790000000000000000000000080C06020202039
:1027A00040E0000000FCFF0100004040C0C140408C
:1027B0000001070E181010100F0F000020E0E0209D
:1027C0000000000020E0E02000FFFF1010101010BB
:1027D00010FFFF00101F1F1000000000101F1F102F
:1027E0000000202020E0E020202000000000000069
:1027F00000FFFF000000000000001010101F1F105D
:102800001010000000000000202020E0E020202028
:1028100000000000000000FFFF0000000060E080FA
:102820008080C07F3F00000020E0E020000020A06A
:102830006020200000FFFF30187CE3C00000000093
:10284000101F1F10000001131F1C181020E0E020B3
:10285000000000000000000000FFFF00000000007A
:1028600000000000101F1F1010101010101806009C
:1028700020E0E0E000000000E0E0E02000FF013F99
:10288000FEC0E01E01FFFF00101F1000031F030029
:10289000101F1F1020E0E0C0000000000020E0201A
:1028A00000FF0003071C78E08000FF00101F1000ED
:1028B00000000000030F1F00000080C060202060A7
:1028C000C080000000FEFF010000000000FFFE00CD
:1028D0000001070E181010180C07010020E0E0207E
:1028E0002020202060C0800000FFFF20202020202A
:1028F000301F0F00101F1F1000000000000000001C
:10290000000080C060202060C080000000FEFF0149
:102910000000000000FFFE000001070E1111133C33
:102920007C67210020E0E0202020202060C0800083
:1029300000FFFF101030F0D0080F0700101F1F100D
:10294000000000030F1C10100080C0602020202019
:102950004040E00000070F0C1818303060E08100A4
:10296000001F0C0810101010180F070080602020A6
:1029700020E0E020202060800100000000FFFF0038
:102980000000000100000000101F1F1000000000E8
:1029900020E0E020000000000020E02000FFFF0019
:1029A000000000000000FF0000070F1810101010BA
:1029B000100807002060E0E02000000020E0602018
:1029C0000000077FF88000807C030000000000000A
:1029D000071F1C070000000020E0E02000E0E020CE
:1029E0000020E0200007FFF8E01FFFFCE01F0000D0
:1029F0000000031F0300011F03000000002060E02F
:102A0000A0000020E0602000000000038F7CF8C6DA
:102A1000010000000010181E130001171F181000FD
:102A20002060E0E02000000020E0602000000107BE
:102A30003EF8E0180700000000000010101F1F10F3
:102A40001000000000806020202020A0E0E0200096
:102A500000000000C0F03E0F0300000000101C1F2B
:102A600017101010101806000000000000FC0404ED
:102A7000040404000000000000FF0000000000004B
:102A800000000000007F404040404000000010E097
:102A9000000000000000000000000000031C608037
:102AA0000000000000000000000000030C70800027
:102AB00000000404040404FC000000000000000006
:102AC000000000FF00000000000040404040407F48
:102AD0000000000000000010080C040C08100000AA
:102AE00000000000000000000000000000000000E6
:102AF00000000000000000000000000000000000D6
:102B000000000000000000000000000000000000C5
:102B100080808080808080808080808000000004B1
:102B20000408080000000000000000000000000091
:102B30000000000000000000000000000000000095
:102B4000000000000000000000000000000098D815
:102B500044642424FCF80000000F1F181010100813
:102B60001F1F10180020E0F000000000000000000F
:102B70000000FFFF180804040CF8F00000001F0F0D
:102B800018101010180F03000000000000000000D3
:102B90000000000000E0F8180404043C38000000C5
:102BA00000030F0C101010100806000000000000B9
:102BB00000000020E0F0000000E0F81C040404081D
:102BC000FFFF000000030F18101010081F0F08006F
:102BD0000000000000000000000000000000E0F81D
:102BE000484444444C7870000000030F0C18101047
:102BF000100804000000000080C0602020E0C00039
:102C000000040404FFFF040404040000000010108A
:102C10001F1F101010000000000000000000000046
:102C200000000000000070F88C04048CF874040CA0
:102C3000007076CF8D8D8D89C87870000020E0F00F
:102C400000000000000000000000FFFF0804040472
:102C5000FCF8000000101F1F100000101F1F1000C4
:102C6000000000000060600000000000000004049C
:102C700004FCFC000000000000001010101F1F10DA
:102C80001010000000000000000000606000000064
:102C900000000000040404FCFC0000000000C0C0B0
:102CA0008080C07F3F0000000020E0F000000000B6
:102CB000000000000000FFFF80C0F41C04040000BE
:102CC00000101F1F1100031F1C1010000000202007
:102CD00020E0F000000000000000000000FFFF0006
:102CE0000000000000001010101F1F101010000046
:102CF00000000000000000000000000004FCFC08D0
:102D000004FCFC0804FCFC00101F1F10001F1F1017
:102D1000001F1F1000000000000000000000000065
:102D20000004FCFC08080404FCF8000000101F1F4D
:102D3000100000101F1F1000000000000000000025
:102D40000000000000E0F0180C04040C18F0E00093
:102D500000030F0C101010100C0F030000000000F7
:102D600000000000000000000004FCFC0804040453
:102D70000CF8F0000080FFFF889010101C0F03007B
:102D800000000000000000000000000000E0F81C4F
:102D900004040408F8FC000000030F1810109088C9
:102DA000FFFF8000000000000000000000000000A5
:102DB000040404FCFC100804040C0C001010101F88
:102DC0001F101010000000000000000000000000B4
:102DD0000000000000003078CCC48484840C1C0007
:102DE00000001E1810101011190F0600000000003E
:102DF00000C000000000000000040404FFFF040401
:102E000004000000000000000F1F1010100C000054
:102E10000000000000000000000000000004FCFEB4
:102E200000000004FCFE000000000F1F1810100836
:102E30001F0F08000000000000000000000000005C
:102E400000040C3CFCC40000C43C0C040000000066
:102E5000010F1E0E01000000000000000000000035
:102E600000000000043CFCC400E47CFC84807C0482
:102E70000000071F070000071F07000000000000F8
:102E800000000000000000000004041C7CE4C034CA
:102E90001C0404000010101C1601131F1C18100045
:102EA00000000000000000000000000000040C3CD6
:102EB000FCC400C43C0404000000C080C1370E0103
:102EC0000000000000000000000000000000000002
:102ED00000001C0404C4F47C1C0400000000101C4E
:102EE0001F17111010180E0000000000000000F85D
:102EF0000C04000000000000001028EF000000009B
:102F0000000000000000003F6040000000000000E2
:102F10000000FF0000000000000000000000FF00B3
:102F200000000000000000000000FF0000000000A2
:102F30000000040CF8000000000000000000000089
:102F4000EF28100000000000000040603F0000007B
:102F500000000000001806020204081020203008BB
:102F60000000000000000000000000000000000061
:102F700000000000000000001060028C0000FE92C3
:102F800092929292FE00000004047E01407E424232
:102F90007E427E42427E40000000FC242424FC2528
:102FA0002624FC242424040040308F80844C5525A2
:102FB0002525554C808080001010D0FF9014E4AF80
:102FC000A4A4A4AFE4040000040300FF00894B2A7A
:102FD0001A0E1A2A4B888000101090909090901032
:102FE00010FF101011161000002060203F1010106C
:102FF00000030C102040F80000FC848484FC0010C6
:1030000010101010FF101000003F1010103F0000B3
:10301000010640807F00000020102CE7242400F0EF
:103020001010FF1010F000000101017F21110007B6
:103030000202FF020207000000F8012220222AF209
:103040002222222202FE000000FF00001F01017F59
:1030500009110F40807F00004030EF2424402010F1
:103060000C23CC102040400001017F2111000109F8
:103070001121D10D03000000001012929292929241
:1030800092121202FE0000000000003F101010100B
:103090003F0040807F00000000FE225A86088868BA
:1030A000180FE8080808080000FF04080720110DA1
:1030B00041817F010509300080908C848484F586ED
:1030C00084848484948C8000008080844649281005
:1030D000102C2340800000001010FF1010F00000A2
:1030E000FE222222FE00000080601F00003F4040C0
:1030F0004F4444444F407800100C042424242526D7
:10310000A464240404140C00020202020242827F1E
:10311000020202020202020008C8484848C80888A1
:1031200088FF48298A08080020672424141750447F
:10313000242316192442F800001010101010111644
:103140001090503010000000004020101028444221
:103150004140404040404000000000C080808080EE
:10316000808080FC84808080808080C0C0000000DF
:10317000000000FF7F404040404040FF4040404052
:10318000404040FF7F000000000000000000000001
:103190000000007F70000000000000000000000040
:1031A000000000000000000000000000000000FC23
:1031B000F800000000000000000000000000000017
:1031C00000000000FFFE020202020202020202FFF1
:1031D000FF020202020202020202FF0300000000DC
:1031E000000000001F1F040404040404040404FF7E
:1031F000FF0404040404040404041F00000000008D
:103200000000000000000000000000000000007F3F
:103210003F0000000000000000000000000000006F
:10322000000000000000000000000000000000009E
:1032300000000000000000000000000000F8F8F0AE
:10324000F0702000000000000000000000000000FE
:10325000000000000000000000000000000000006E
:1032600000000000000000008000000000000000DE
:1032700000000000000000000000000000FFFFFF51
:10328000FF0000000000000000000000000000003F
:10329000000000008080000000000000000000002E
:1032A000000000000000000000FFFFFE060606060A
:1032B00006060606060606060606060606FFFFFFC3
:1032C000FF060606060606060606060606060606A5
:1032D000060606FFFFFFFF070200000000000000D7
:1032E000000000000000000000FFFFFF00000000E1
:1032F00000000000000000000000000000FFFFFFD1
:10330000FF000000000000000000000000000000BE
:10331000000000FFFFFFFF000000000000000000B1
:10332000000000000000000000FFFFFF1818181840
:1033300018181818181818181818181818FFFFFF58
:10334000FF18181818181818181818181818181816
:10335000181818FFFFFFFF00000000000000000029
:103360000000000000000000020101000000000059
:1033700000000000000000000000000000FFFFFF50
:10338000FF0000000000000000000000000000003E
:10339000000000010100000000000000000000002B
:1033A000000000000000000000000000000000001D
:1033B00000000000000000000000000000FFFFFF10
:1033C000FF000000000000000000000000000000FE
:1033D00000000000000000000000000000000000ED
:1033E00000000000000000000000000000000000DD
:1033F000000000000000000000000000001F1F0F80
:103400000F000000000000000000000000000000AD
:1034100000000000000000000000000000000000AC
:103420004034000800000020300E00006C0100084D
:103430008C370008300E0020D80B0000D0010008A7
:1034400003110100016004A24A040B501901020398
:1034500004060708090003050911FF118905C300C7
:10346000E000F000F82A00083A4428FF11AA4400BE
:1034700001500B8301384482929274018311200819
:103480007C44FF017D7D7D04410550047D01FF8D5D
:10349000910271A1023B017E81419149F20101013A
:1034A0001BC230083F3F0303F3131101100601F163
:1034B000116181402005816111F1473341410720AD
:1034C0000401C12120A321C1143119313704073669
:1034D000D33303033F3F426006E0E000007FA816BD
:1034E0007FB440040618060A1008000040407F40E0
:1034F00040A410041F204001A3201F143300600EBD
:103500006004300C03460534C2100407070601703E
:103510000904040484444444840780050484C404E6
:103520001501120A71112140073D0707C9200F003C
:1035300000101814121100000F1010100F0F131F9D
:103540001015600D081012120D00001800000D1269
:103550000A51295130015E01528001013B4514049A
:103560007F030CA915DE1C05385454582503080A9E
:103570002004047800003C40407C2000092CFFAA75
:10358000AAAA280800FF68100626494949321010E7
:1035900005020408100F0D6F00049D01040D9D002D
:1035A00004156343F80801240500F81860E82404B2
:1035B000806018235720202923E01021A310E01455
:1035C00049B4313908043C886818630D15FF037D40
:1035D000EA039DFF0371144DFF031D06043D2E04F5
:1035E0000942E91C0640202020C04A04110721EAB4
:1035F0003E40520452600E8118712951070D4769EF
:10360000031C060C0A0A090C0004156B2D0004208B
:1036100004080F081510050809090E071D180430C5
:10362000050909090F0A512951070DFF00040D2250
:1036300000040D5118052005E0F8FCFE017EFC1188
:10364000030C052880C0C0C0270572FF013804E6BE
:10365000E6E64810080707C7F7FB381C01012C40B5
:103660005804CCCCCC0800053001070F0E400134C3
:10367000FC81C015040E2CF00903B0040F3FFF01BC
:103680000C04307F3F0FFA086203010E3701D906A0
:10369000B2C0010D24E506A00680E0F0F8FCFFC1F1
:1036A0000129110715F0E00F000416C0E0FC38A056
:1036B00005FF7FBFDF4808041AFCF08034A53E00F8
:1036C00006111F0FF7FBFD910D101E0B00041103D7
:1036D0001F7F400114580E141FD2081963B0049FB5
:1036E000BF7F47D3F8F0C90405169F0F07033D4677
:1036F000F802100DFEFDFDFBFBF7F7FFE7E7E7EF34
:10370000011004E7EFF7014805FBFBFFFD59071423
:10371000FEF84303280F1F010E54060F0904051875
:10372000E0E0E060C60D1F540335709207C7829F2A
:103730000191BD011C402D6C040A13E0862BFEFC98
:103740007F0919C8160FB0BBF8F88710043F1F0F88
:1037500001B91B0E19FE4F0B2D050CBA1FABBC0592
:10376000F8F8F0F012040C041EFF7F03770BC80773
:1037700003070F1F3F3F49193C0C072F7F3F1F1FB7
:0C3780000703050D0D1DE60C6D2208006E
:0400000508000131BD
:00000001FF
